:10400000C00A00206D46000057D0010057D00100C3
:1040100065ED010057D0010057D0010057D00100D5
:1040200057D0010057D0010057D0010057D00100F0
:1040300057D001005488020057D0010057D001002A
:1040400057D0010057D0010057D001003D4B000070
:1040500057D0010057D001001151000057D0010086
:1040600057D0010057D0010055CC000057D00100B7
:10407000C1AF000057D0010057D0010057D0010058
:1040800057D0010057D0010057D0010057D0010090
:1040900057D00100C54E000057D0010057D0010095
:1040A00057D001003D5000001D50000057D00100C6
:1040B00057D001003982020057D00100ADB901008C
:1040C0003F8202003B8202006DB101004B82020080
:1040D0004382020071B90100478202008599010004
:1040E000EDB9010057D0010057D0010057D00100B1
:1040F00057D0010057D0010057D0010057D0010020
:1041000057D0010057D0010057D0010057D001000F
:1041100057D0010057D0010057D0010057D00100FF
:1041200057D0010057D0010057D0010057D00100EF
:1041300057D0010000000000F8B5894B1C8814F02E
:10414000010440F00881874E874B884FC6E9003450
:1041500041F60B2340227F218548B4603C60BB8040
:1041600024F0C0F84FF07F32824B214630461A606F
:1041700010F00AFE044630B940F212417E4B7F4AED
:104180007F4817F031FE4FF0011123F09EFB20B164
:1041900040F21A417B4B794AF2E70221204623F094
:1041A0003EFA20B140F21D41764B744AE8E72046C2
:1041B000754911F081FB20B14FF48461714B6F4A56
:1041C000DEE70121204623F0BDFC20B140F225416D
:1041D0006C4B6A4AD4E70121204623F0C3FC054614
:1041E00020B14FF48561674B644AC9E70146E0227C
:1041F000664824F077F880232A46204606F110010D
:1042000023F0B3FB802804D040F22F41604B5B4A7F
:10421000B6E7604E012010F00BFE4FA3D3E9002358
:104220004FF0FF304FF0FF31346009F0D1F92946EB
:10423000384609F0EFF80121084609F05FF901213D
:10424000306823F08AF9044620B140F2C1414D4B59
:10425000514A95E701464FF40872504824F042F85D
:104260004F4A504B02F188011A60996202F5887139
:1042700002F5CC729C809A679C854B4AA3F8544007
:104280001965A3F87C40494B6FF063001A609C806D
:10429000474A484B1A60484A9C801470474A5A6102
:1042A0000DF002FC0B2008F09FFF454B186020B971
:1042B00040F2D941434B384A62E701F0B3FF002096
:1042C00009F0B6F908223068114623F0E8F920B168
:1042D00040F2DE413C4B304A52E719F0D0F8044638
:1042E00019F0E8F808B144F40034204619F0C9F890
:1042F00009F018F919F0D6F800280CBF082200229E
:104300000821306823F0CBF920B14FF450612F4BD6
:104310002F4A35E72F4B1B78ABB90022002341F21F
:104320000D012D4809F054F900200AF037FC002354
:104330002A4A2B4813702B4A13702B4A1370BDE87E
:10434000F8401FF0FAB819F0ADF80028E5D041F2B6
:104350000D03214AE3E7F8BD0BE020FF2202000035
:104360009C6A0020C46300206DD80000A463002074
:10437000EA6C0020C86C0020999002000E930200A5
:10438000AA8D02008D8B02002C9402006064002034
:10439000A8900200A0630020A993020040650020BD
:1043A00048650020481700202B6D002020170020B2
:1043B000B36D0020E8170020AA6D0020101800201F
:1043C0005C640020E0900200FB9002007F910200FC
:1043D000B69202001D0C0020C00D0300CE6C002020
:1043E00025920200B26D0020B16D002010B5054C81
:1043F000237833B9044B13B1044800E000BF012314
:10440000237010BDA02E0020000000000CC7020089
:1044100008B5034B1BB10349034800E000BF08BDCA
:1044200000000000A42E00200CC70200A3F5803A73
:10443000704700BF174B002B08BF134B9D46FFF77B
:10444000F5FF00218B460F461348144A121A23F039
:1044500049FF0E4B002B00D098470D4B002B00D08E
:1044600098470020002104000D000D48002802D0CC
:104470000C4800E000BF17F009FD2000290018F0EB
:104480009EFD17F0DDFC00BF0000080000000000EA
:1044900000000000C00A0020A81300205070002077
:1044A000000000000000000008B51EF0F8FF054BFA
:1044B000186028B93F21044B044A054817F094FCC2
:1044C00008BD00BFBC2E0020F88702000B88020048
:1044D00002880200014B18680AF030BDBC2E002093
:1044E00010B5044C20681FF02EF82068BDE810407D
:1044F0000AF0F8BCBC2E002010B51E4C18F01EFFB0
:10450000236F23F0070343F00203236718F01DFF16
:10451000D4F82031002023F0070343F00103C4F84E
:104520002031D4F8403123F0030343F00103C4F8F1
:104530004031D4F8603123F0030343F00103C4F8A1
:104540006031D4F8403223F0030343F00103C4F890
:104550004032D4F8003223F0070343F00103C4F8DB
:104560000032D4F8083223F0070343F00103C4F803
:10457000083210BD0080005007B501A801F04AFCC8
:104580009DF80530012B27D11F4A936DDB0313D40F
:10459000536B23F4FF0323F4FE4343F4BC1343F4AF
:1045A000A0635363136B23F4704343F440431363DA
:1045B000136B43F4E06313639DF8043063B94FF069
:1045C00000531B68114B1B68114B1B68114B1B6878
:1045D000114B1B68114B1B68114AD2F8803043F015
:1045E0000303C2F8803007F045FF07F001FF07F032
:1045F00007FFFFF781FF07F0E9FE00F067FA03B05D
:104600005DF804EB00F02ABD00C00050004000201F
:104610000080002000C00020000001200040012098
:1046200000800050014B1878704700BFB26B00202B
:1046300038B5054618F021FF044630B9284611F078
:1046400071F92346024A137038BD02231846F9E770
:10465000B26B0020014818F08BBD00BF2488020017
:10466000014818F0F9BD00BF3C88020008B500F011
:104670002DF8124B12498B4212D30020114B1249D4
:104680008B4218D3FFF7D6FE186850F822405868BE
:1046900040F82240013298688242F5D30C33EAE7B1
:1046A0000022F8E71C6844F8220001325C68A2424C
:1046B000F8D30833E4E70022F8E700BF14C702008C
:1046C00020C7020020C7020020C702006FF00100CF
:1046D000104B114A10B59A60D3F888200F4942F464
:1046E0007002C3F8882001F50052106641F2FF7095
:1046F00050660220C3F8D000BFF34F8FBFF36F8F17
:1047000008244FF440330648C0F88041D360046069
:104710000B6110BD00ED00E000400000008000448F
:1047200000E100E0014B1868704700BFC40A002098
:10473000014B1860704700BFC40A0020084B1B6F74
:1047400003F00703022B04D0032B05D0012B05D067
:10475000FEE7044B18687047034BFBE703487047BC
:1047600000800050C40A0020C80A0020002D31013A
:1047700008B5FFF7E3FF054B1B6FC3F301330133AC
:10478000B0FBF3F0024B186008BD00BF0080005082
:10479000C00A00200048704700B4C404014B1868E8
:1047A000704700BFC80A0020054B1860054B1B6FFF
:1047B00003F00703032B01D1FFF7DABF704700BFF7
:1047C000C80A00200080005000487047002D3101C9
:1047D000174B9868C0F304400C2822D8DFE800F09B
:1047E000092121212121071719211B1D1F00114813
:1047F00070479B6803F04073B3F1807F13D0B3F12F
:10480000007F12D00C4A002B08BF104670470B489F
:1048100070470B4870470B4870470B4870470B4870
:104820007047002070470A4870470A48704700BF29
:104830000040015A405DC60000093D000024F4001C
:10484000C0EA210180BA8C010048E801005A6202E6
:1048500080841E0040420F00014B1868704700BF63
:10486000CC0A0020BFF34F8F0549064BCA6802F4FB
:10487000E0621343CB60BFF34F8F00BFFDE700BF83
:1048800000ED00E00400FA0500239B6AB3F5804FB9
:1048900003D21968064A914203D000230370836053
:1048A0007047012202709A689B694260F7E700BF77
:1048B00007B0CD5E73B5494B04461A781AB102228F
:1048C0001A7002B070BDCDE900220028F9D001268F
:1048D0001E7018F04BFD424D424B186013F0A2FDC4
:1048E0002B785BB900F0BAFB40B93F4808233F4A38
:1048F0003F4900680FF076FF00B92E703D4B5A68B3
:10490000E2603D4A9A601A6E22605A6E6260D3F885
:104910007021A2601B6E5C0440D5384AD368D8076A
:10492000FCD4374B1A68531C3DD04FF4801393408E
:10493000344A13660423334C23664FF480632366A2
:1049400018F0ADFB01300ED018F0A9FB40F20113B6
:10495000984208D04FF4804323664FF40043236607
:104960001023C4F870311023264C4FF08042236688
:104970004FF400536846236601A92266636618F067
:1049800073FB009B2366019B63662B78002B98D0FA
:10499000164B1A6822665B68636692E71A4AD36808
:1049A000D907FCD4BDE7194B1B78002BC2D1184B9B
:1049B0005A68144B12B94FF480121A66154A52689D
:1049C00012B94FF400121A66134B5B68002BB1D179
:1049D0004FF480020B4B1A66ACE700BFB56B0020AA
:1049E000B36B0020D82E0020D80A0020D02E002043
:1049F000007108000080004455CEAC000000044067
:104A0000D00A00200090004400000450B46B002045
:104A10000080055000C005500000065038B5224DFA
:104A200004462B78012B02D001232B7038BD0028BF
:104A3000FCD018F034FB013009D018F030FB40F204
:104A40000113984203D0194AD368DB07FCD42268CB
:104A5000174B1A6662685A66A268C3F87021E2684A
:104A6000D40744BF00229A60124B1A68013213D156
:104A7000114A127882B911494968C80748BF1A60BB
:104A80000F4A5268D10744BF01221A600D4A52688A
:104A9000D20744BF02221A6013F0CCFC0A4B1868FC
:104AA00018F06AFC0023C0E7B56B0020000004404A
:104AB00000800044D00A0020B46B00200080055024
:104AC00000C0055000000650D82E002070B500240C
:104AD000A36AB3F5804F22D21A68124B9A421ED1B4
:104AE000114E337813F0FD0517D11048FFF7E2FEA1
:104AF00008214FF480330E4A0E48C2F88011C3607B
:104B000011600D4A1361AB6ADB6998470446074898
:104B1000FFF784FF0CB901233370204670BD4FF4BA
:104B20008174FAE707B0CD5EB46B0020C02E002080
:104B300000E100E000A000440090004413B51F4BCA
:104B40001B7803B9FEE700231D4CCDE900336A460C
:104B500008231C4920680FF045FEF0B91A4AD2F824
:104B60004031D2F840211F2B4FF0010310D9203AD9
:104B70009340019A1343019308236A461149206820
:104B80000FF0E6FD4FF00053104A1A60FFF76AFE7F
:104B90009340009A13430093EEE70D4B9842F1D1F6
:104BA000094AD2F84031D2F840211F2B4FF00103BF
:104BB00002D9203A9340DEE79340ECE7B56B002042
:104BC000D80A002000710800008000440B020FF09A
:104BD0000BE000F005490A681318054883428CBFB2
:104BE0004FF0FF320B601046704700BFD40A002020
:104BF0000000012037B504680023012261790546D1
:104C0000207900F037FF14223023217913FB012390
:104C100003F1A04303F570331B686279D340DB4393
:104C200003F001032370A379022B0ED100F0A0F949
:104C30002A460749607900F0C5F9012302466179E7
:104C40002079CDE9003300F0D1FE002003B030BD63
:104C50007DD1010010B5012243780178847830209D
:104C60009A40054B00FB01331CB942F210015A5027
:104C700010BD41F21001FAE700C0035010B5012247
:104C800043780178847830209A40054B00FB01334B
:104C90001CB941F210015A5010BD42F21001FAE75E
:104CA00000C0035038B5124B05461B78DBB1E0B1AC
:104CB00018F05CFB0F4A00231146147B54B92B609B
:104CC00001251A0101EB03131D738C5018F054FBDE
:104CD000204638BD0133082B02F11002EDD118F047
:104CE0004BFB0548F5E70548F3E70548F1E700BF4A
:104CF000B66B0020DC2E0020048000F0028000F063
:104D0000018000F00D4B10B51B78044693B10728C5
:104D100012D818F02BFB0A4B03EB04131A7B2AB1B1
:104D200000241C7318F028FB204610BD18F024FB4B
:104D30000448FAE70448F8E70448F6E7B66B0020B1
:104D4000DC2E0020068000F0028000F0018000F0E0
:104D5000154B13B51868002301908DF8043018F036
:104D600005FB124B1C7824B118F006FB104802B06A
:104D700010BD01221A7018F0FFFA0E4B01A81C7327
:104D80001C7783F82C4083F83C4083F84C4083F830
:104D90005C4083F86C4083F87C4008238DF8073032
:104DA00000F0B8FE2046E2E7A4880200B66B0020BF
:104DB000038000F0DC2E0020F8B50D4D2D7885B174
:104DC000072810DC0B4D060105EB0014277B67B1AB
:104DD000AB510025069BA560636000F0C5FE284628
:104DE000F8BD0548FCE70548FAE70548F8E700BFC5
:104DF000B66B0020DC2E0020028000F0018000F065
:104E0000078000F00A4A08B512785AB107280BD873
:104E1000084A02EB00131B7B43B1002100F06CFE3B
:104E2000002008BD0448FCE70448FAE70448F8E716
:104E3000B66B0020DC2E0020028000F0018000F024
:104E4000078000F00A4A08B512785AB107280BD833
:104E5000084A02EB00131B7B43B1012100F04CFE1A
:104E6000002008BD0448FCE70448FAE70448F8E7D6
:104E7000B66B0020DC2E0020028000F0018000F0E4
:104E8000078000F00A4A08B5127852B107280AD8FC
:104E9000084A02EB00131B7B3BB100F0B3FE00207D
:104EA00008BD0548FCE70548FAE70548F8E700BFF4
:104EB000B66B0020DC2E0020028000F0018000F0A4
:104EC000078000F02DE9F843174B1F6D5B6D1F4005
:104ED00000D5FEE701260025144CDFF85480DFF8EA
:104EE0005490374217D02368C8F850609BB1A1682E
:104EF000284601316268A1609847637B012B0AD183
:104F000048B909EB45131A7B60F341021A731A7F03
:104F100060F341021A770135082D4FEA460604F185
:104F20001004DED1BDE8F88300000450DC2E002020
:104F3000002004505C2F002070B5044601250B4E64
:104F400004B970BD94FAA4F0B0FA80F005FA00F349
:104F500006EB001224EA03045368002BF0D0117B07
:104F600011B191689847EBE79847E9E75C3000207A
:104F700008B5192000F022FD28B14FF00072074B50
:104F8000C3F880211A601A2000F018FD28B14FF0F4
:104F90008062024BC3F880211A6008BD00E100E086
:104FA00038B505460C4618F0E1F90022044B03EB36
:104FB00005135C601A73BDE8384018F0DDB900BF16
:104FC0005C300020F8B505460F46164618F0CEF9BD
:104FD000104B05F0FC02D3F824140023EC1804F065
:104FE0000304144321FA04FC1CF0010F07D0013321
:104FF000042BF3D1FF2418F0BFF92046F8BDFF2C95
:10500000F9D00122044B03EB0413C3E901761A73B0
:10501000F1E700BF00C003505C300020064BD3F81E
:105020002404D3F8202403F50053104000F0553039
:10503000C3F82004FFF780BF00C00350064BD3F82D
:105040002404D3F8202403F50053104000F0AA30C4
:10505000C3F82004FFF770BF00C00350024B19686B
:10506000024B18680FF09EBADC0A0020D80A002014
:1050700037B5920004460D46019223F0ADFB431C68
:105080000BD060B929462046019A23F0F4F8002895
:10509000044808BF002003B030BD0348FBE70348C5
:1050A000F9E700BF10E000F021E000F024E000F09C
:1050B00010B5044623F098FB431C10D088B900F0CB
:1050C000BDFE234620F003002044984201D1002079
:1050D00010BD53F8042B0132F7D00348F8E703481A
:1050E000F6E70348F4E700BF0EE000F021E000F02F
:1050F00024E000F008B518F032F9014B186008BD43
:105100009C380020014B186818F02DB99C380020FD
:10511000054B5B69DB0605D51022044B5A61012261
:10512000034B1A70704700BF0080045000A0045069
:10513000B76B002041F6713310B5104C104AA042F5
:105140008CBF4FF480140024D169D363936801F4B9
:10515000803123F44013234393600A4B98420A4B57
:10516000D3F818228CBF42F0020222F00202C3F8E8
:10517000182211B10022024BDA6310BD005A6202FC
:105180000000035080F0FA0200C007502E4B9842F6
:105190004AD022D82D4B984240D014D82C4B98425C
:1051A00039D00AD82B4B984232D02B4B98422FD073
:1051B0002A4B98422CD000207047294B9842FAD1B4
:1051C000284B186F7047284B98422AD0274B98429B
:1051D000F1D1244BD3F880007047254B98422BD057
:1051E00009D8244B984223D0234B9842E3D11D4B3E
:1051F000D3F88C007047214B984221D003F57403FB
:1052000003F510539842D6D1164BD3F89800704747
:10521000144B986D7047134B586E7047114B586F75
:105220007047104B986F70470E4BD3F8840070474F
:105230000C4BD3F8880070470A4BD3F890007047A6
:10524000084BD3F8940070470048E8010024F400AC
:10525000C0CF6A0080841E0000093D0040420F005C
:10526000405DC6000080E00FC0EA210180BA8C01D9
:10527000007E560380D54302006CDC020090D00310
:1052800038B5134B0546D3F820010C4600F0070053
:10529000042804D8DFE800F01A0A0E1216000023D2
:1052A000184605B1286004B1236038BDFFF73AFA0B
:1052B0000423F6E7FFF772FA0323F2E7FFF788FA11
:1052C0000523EEE7FFF780FA0223EAE70123E8E788
:1052D0000080005037B50C460021124A0191D2F8E7
:1052E0008021054602F00302022A0ED0032A11D0C3
:1052F000012A14D101A8FFF7C3FF0D230DB1019AB4
:105300002A6004B1236003B030BDFFF761FA0523C2
:105310000190F3E7FFF758FA02230190EEE70B46FE
:10532000ECE700BF0080005038B5104B0546D3F8BD
:1053300040310C4603F00303022B0BD0032B0DD09E
:10534000012B0FD117F08AFE082305B1286004B1A4
:10535000236038BDFFF780FA0723F6E717F081FED8
:105360000923F2E701230020EFE700BF008000508F
:1053700038B5104B0546D3F860310C4603F00303F3
:10538000022B0BD0032B0DD0012B0FD117F066FE93
:10539000082305B1286004B1236038BDFFF75CFA2B
:1053A0000723F6E717F05DFE0923F2E7012300204B
:1053B000EFE700BF0080005038B5144B0546D3F826
:1053C00000020C4600F00700042804D8DFE800F0D3
:1053D0001B0A0E1216000023184605B1286004B1FE
:1053E000236038BD17F03AFE0823F6E7FFF734FADA
:1053F0000723F2E717F035FE0923EEE7FFF7B8F9C8
:105400000C23800AE9E70123E7E700BF0080005092
:1054100038B5144B0546D3F808020C4600F00700D7
:10542000042804D8DFE800F01B0A0E12160000233F
:10543000184605B1286004B1236038BD17F00EFE90
:105440000823F6E7FFF708FA0723F2E717F009FE4B
:105450000923EEE7FFF78CF90C23800AE9E7012323
:10546000E7E700BF0080005038B5104B0546D3F881
:1054700040320C4603F00303022B0BD0032B0DD05C
:10548000012B0FD117F0EAFD082305B1286004B104
:10549000236038BDFFF7E0F90723F6E717F0E1FDD9
:1054A0000923F2E700231846EFE700BF0080005011
:1054B00038B5104B0546D3F800310C4603F0030312
:1054C000022B0BD0032B0DD0012B0FD1FFF766F968
:1054D000032305B1286004B1236038BDFFF7BCF990
:1054E0000723F6E717F0B8FD0623F2E701230020B3
:1054F000EFE700BF00800050032814D005D8012832
:1055000005D0022809D0002005E00F28FBD1084B68
:10551000186FC0F3013001307047054BD3F890008D
:10552000C0F30460F7E7024B186FC0F38020F2E786
:10553000008000501FB500230193252817D8DFE80D
:1055400000F0131A1D262B353A50555A5F646977BF
:10555000161A3F1616551A262B26351A5026773A54
:105560003A3A3A2626265A5FFFF7E8F80190019862
:1055700005B05DF804FBFFF7FBF8F7E7FFF7DEF88F
:1055800002460220FFF7B8FFB2FBF0F0EEE7FFF7AC
:10559000EFF802460320F5E7FFF7EAF8024603209A
:1055A000FFF7AAFFB2FBF0F04008DFE7002101A8F7
:1055B000FFF790FEDBE7002101A8FFF761FED6E7C9
:1055C00002934FF0E0231B695B0705D5FFF7D0F886
:1055D0000290029B0193CAE703A902A8FFF7A4FE69
:1055E000F7E7002101A8FFF79FFEC0E7002101A80F
:1055F000FFF7BEFEBBE7002101A8FFF7DDFEB6E71F
:10560000002101A8FFF704FFB1E7002101A8FFF77F
:105610004FFFACE7094BD3F8803003F00303022BB4
:10562000A9D0032B01D00020A0E7FFF7D1F89DE718
:10563000002101A8FFF718FF99E700BF0080005084
:1056400008B50120FFF776FFBDE80840034988420E
:105650008CBF02210121032000F002B880F0FA0281
:10566000032810B50C4627D004D8012804D00228FE
:1056700017D010BD0F28FCD117F054FE17F05AFEBA
:10568000124B013C196F21F4405141EA04341C676C
:10569000FFF76EF80021FFF74DFDBDE81040FFF762
:1056A000CFBF0A4B013CD3F8901021F0F85141EAEA
:1056B0000464C3F89040DCE7044B013C196F21F40B
:1056C000806141EA84241C67D3E700BF008000505A
:1056D0001FB500230193252821D8DFE800F013200F
:1056E0002020202A2F454A4F54595E712020342013
:1056F000204A202020202A204520712F2F2F2F20C4
:1057000020204F54314B1B6F03F00703013B032B49
:1057100005D8DFE803F00C02080A0423019301987E
:1057200005B05DF804FB0323F8E70623F6E7022340
:10573000F4E7002001A9FFF7CDFDF0E7002001A963
:10574000FFF79EFDEBE702934FF0E0231B695B0739
:1057500005D5FFF70DF80B230393039BDEE703A9A1
:1057600002A8FFF7E1FDF8E7002001A9FFF7DCFD43
:10577000D5E7002001A9FFF7FBFDD0E7002001A934
:10578000FFF71AFECBE7002001A9FFF741FEC6E7AD
:10579000002001A9FFF78CFEC1E70C4BD3F8803045
:1057A00003F00303022B03D0032B05D00023B5E73E
:1057B000FEF7DEFF0B23B1E7FFF70AF80523ADE79D
:1057C000002001A9FFF750FEA9E700BF00800050AC
:1057D00038B50546FFF7DAFC214B04465A68012A22
:1057E00004D120494A609A699207FCD10020FFF752
:1057F0006FFF042803D117F095FD17F09BFD1A4A9F
:1058000024F04073954221D0184A954221D0184A7D
:10581000D16811F0060FFBD190689360916803F492
:10582000F81301F4F8118B4216D12846FEF780FFD9
:105830000020FFF74DFF042810D1FEF799FF00214B
:10584000FFF778FCBDE83840FFF7FABE43F000737D
:10585000DDE743F08073DAE79060E9E738BD00BF29
:1058600000C0015000E0015040420F0080841E0043
:105870000000015070B504460020FFF729FF0328FF
:105880007CD045F60E030221414AC2F88030414BDC
:105890009962012103F580539962936DD903FCD479
:1058A000D4E900131B0543EA0163E17B94F822501D
:1058B0000B43217B94F8236043EA0143617B43EA75
:1058C0000133A17B43EA811313619169D4E9040395
:1058D0001B0643EA806301F000410B43A17EE07E9A
:1058E0000B43217E43EA0143617E43EA0123936136
:1058F000136AE26923F00D03002A0CBF002108217E
:1059000043EA020343EA8003214A43EA01031362A4
:1059100094F820304FEA431331D1906A94F8211063
:1059200020F0330043EA0113034343F00103936281
:10593000194B916D33EA0101FBD10221154B99629C
:10594000936D5B00FCD41069A36820F4700040EAFA
:10595000035010614FF000420E4B9A611DB90222B4
:1059600003F580539A6216B901220C4B9A6294F89F
:1059700024301BB1064B0A4AC3F8802070BD916ADF
:1059800021F0330131430B4343EA45039362EEE7D1
:1059900000C0005000D000500300014000E0005063
:1059A000F1A7FFFF014B93F900007047B86B00208F
:1059B000014B1880704700BF080C0020054B4209BE
:1059C00053F8223000F01F0023FA00F0C04300F02B
:1059D0000100704700E100E0034A0179D36E23F033
:1059E00030030B43D366704700400050072AF7B5D9
:1059F0000D4614461F460FD803219600B14000FA09
:105A000006F21548019117F0BAFC05F0030201995E
:105A10001248B24017F0B3FC114B12499DF8200018
:105A2000002F08BF1946012303FA04F40C600E4B43
:105A30000E49002808BF0B461C600D4B9DF8240042
:105A4000C3F820441031A3F6DC33002808BF0B460E
:105A50001C6003B0F0BD00BF00C4035008C4035075
:105A600010E4035010D4035014D4035014E4035032
:105A700000E00350F8B504460D461F4616464AB1ED
:105A800001238B403021194A01FB0022FFB141F272
:105A90001001535004EB4403072D4FF00F014FEA60
:105AA000031317D8A80006FA00F2814010481844E2
:105AB00017F065FC56B9012130230C4801FA05F5B1
:105AC00003FB040077B141F21003C550F8BD42F268
:105AD0001001DEE7A5F10800800006FA00F281401F
:105AE0000448E4E742F21003EFE700BF00C00350B0
:105AF00004C003500CC00350044A054B002918BFD2
:105B00001346012202FA00F018607047402004504A
:105B10004010045030B5047845788178C27801206F
:105B20000F4B41EA0541240658609C609961FF21B2
:105B300099620021996319644FF0004159654FF053
:105B4000FF314FF4001003F50053196505491301A7
:105B5000DBB2C1F8800181F81533086030BD00BFA9
:105B60000000045000E100E02DE9F04101250C4661
:105B7000C3B2DFF888E0D1F800809D408F7ACB7AFD
:105B800094F80DC0097BCEF850500EF5005E4EF82B
:105B900020804FF0300E184E1B050EFB006043EACC
:105BA000074343EA415322F00302C0F860C0C365D3
:105BB000026717F0DBFB736D2B437365237A13B118
:105BC000336C2B433364637A13B1B36B2B43B363EE
:105BD0002279A37943EA0243084A93616179E37920
:105BE00043EA014306498B61034B55639D64BDE85D
:105BF000F04117F0C1BB00BF00000450002004506A
:105C00000010045010B50124C0B2844017F0AEFB60
:105C1000044B5A6D22EA04025A659C62BDE81040AA
:105C200017F0AABB0000045010B50124C0B2844094
:105C300017F09CFB074BDA6A224209D15B6B34EA0E
:105C400003030CBF0124002417F096FB204610BD6F
:105C50000024F9E70000045041F67132034BDA6387
:105C6000012203F50053DA60704700BF00000350C3
:105C700041F671320121044BDA6303F50052D16021
:105C80000022DA63704700BF000003500138252866
:105C90009ABF024B185C0020704700BFCC880200FE
:105CA0002338032803D804299CBF024B595C0846BB
:105CB000704700BFF2880200021E30B54FF00000AE
:105CC0000CBF0C25042547F60774084952B9831DFB
:105CD00051F82330234023B101308542F6D14FF0F3
:105CE000FF3030BD00F11203F2E700BF0080035027
:105CF00038B5C2F30625044602F0070241B90C4B41
:105D000042EA052242F44022063443F8242038BDFA
:105D100011462846FFF7C4FF01462846FFF7B6FFA5
:105D2000034B41EA0020123443F82400EFE700BFA0
:105D300000800350014BD3F894007047004000509E
:105D4000CB784A7810B55B010C7843EA82030A7974
:105D5000234343EA02130C22424302F1B04213638D
:105D6000012C02BF8A78024B43F8202010BD00BFEF
:105D7000D080035008B54FF0B0435A6802B960B103
:105D80005B680BB117F023FB4FF0B04130B101203D
:105D9000074B586017F01BFBC86008BD17F017FBD6
:105DA0000223CB6017F013FB0122024B5A60F4E789
:105DB00000100058002000584FF0B0435B6870B5E9
:105DC0000BB117F004FB0121104B45785960837823
:105DD0000679002BC37814BF02240024002B14BFC3
:105DE000042200224379DB0043EA06132B432343BA
:105DF00013434FF0B0429360054B59600378002B7A
:105E000014BF0B460223D36070BD00BF00200058B2
:105E100000100058054B5B69C3F38512827003F0D4
:105E20003F021B0B42700370704700BF00C0075059
:105E3000014B986CD96C70470080E00F0120034B38
:105E40009B680A3303F01F03984070470080E00FFF
:105E50000D4B984208D1A3F50033C3F88411C36DEC
:105E600043F08003C3657047084B984204D1A3F503
:105E70001033C3F89411F2E7054B984204BFA3F521
:105E80002033C3F8A411EAE70080055000C0055094
:105E90000000065070B5054616461C4619B9032089
:105EA000FFF748FB0146402C1BD003D8DCB1202C67
:105EB0001BD070BD602CFCD1042303FB06F25608F6
:105EC00006EB4113B3FBF2F3094A203B02EAC3039A
:105ED000AA6822F06002AA60AA681443AC60EB6171
:105EE000E7E70623E9E71023E7E70823E5E700BF34
:105EF000F8FF7F00012200F5805310B55A6040F68C
:105F0000AA6341F205024361002312498360C3651D
:105F1000C26000F500520361C361C36491640E491D
:105F20008365884206D00D4CA04203D004F580441E
:105F3000A0420BD18842036506D0084B984203D09B
:105F400003F58043984201D1002343650123536048
:105F500010BD00BFFFFF01000080055000C00550CC
:105F600070B50D46FFF7C6FF012300F5805673603C
:105F7000AB7C04461BB1836843F080438360EB7CB9
:105F80001BB12046297DFFF763FF2A8A6B7B2046E1
:105F90001343EA891343E3602B7BD5E90112FFF732
:105FA00079FF6B7D1BB1A36843F48033A360AB7DA5
:105FB0001BB1A36843F40043A360EB7D2A7E1B075B
:105FC000120502F4E00203F0E0431343A3656A7E86
:105FD000931E012B214B20D89C421AD003F58043FD
:105FE0009C4218D003F580439C420CBF02234FF023
:105FF000FF3341F2AC5102205B0103F1A04303F5F2
:1060000070335850032A23D10423F3652B7863613E
:1060100070BD0023EDE70123EBE79C4214D0104B49
:106020009C4213D003F580439C420CBF02234FF0E7
:10603000FF3342F2AC5102205B0103F1A04303F5B0
:1060400070335850012ADEE70023F2E70123F0E71E
:10605000042204F50053DA65D8E700BF008005503C
:1060600000C0055038B50446054D21F083FB0FCC28
:106070000FC594E80F0085E80F00002038BD00BF71
:106080005039002047F6FF739A42F0B566D00229D6
:1060900066D8344DCF0015F8313005EBC100012B27
:1060A000847813D10025C3781B1B9D4202D3E018CE
:1060B000C0B2F0BD591B4668A3EB510136F911601F
:1060C0009642D4BF0D4601F1FF33EEE74068002849
:1060D000EFD0B0F90030934204DBB0F902309342C4
:1060E000B8BF134682883D44FF2A19BFC8214FF02C
:1060F000280CB0F90610B0F908C0A1EB03020CBFE0
:106100000126002692FBFCF26D78324412B29542D1
:1061100001DD002A01DA6A1E12B24FF47A7700EB31
:10612000C206F188B668013213FB016112B221EA9E
:10613000E1715C319542B1FBF7F104DD00EBC20681
:10614000B6888E42EBD200EBC20232F8040C8842D1
:1061500028BF0846A04238BF2046A9E7FF20A8E78D
:106160000020A6E7503900200229F0B553D82B486B
:1061700000EBC10410F83110636801290FD1E078F9
:10618000A478904294BFC4EB0001C4EB0201001B51
:10619000CAB28242C8BF002233F91200F0BD002B00
:1061A00039D0A178914202D3B3F90200F6E7E17841
:1061B000B3F900009142F1D999886478A1F1FF0602
:1061C000013C714203F10405E4B2714103F10C0793
:1061D0001FFA82FCCEB2B44216D805EBC1014FF4CF
:1061E0007A756A43B1F902404968521A04EBD471D6
:1061F00002EB610292FBF4F29042CFDBB3F90200B2
:106200009042CBDC10B2C9E737F831E04E1CE645CE
:10621000E3D33146DEE70248C0E700BF5039002033
:106220000080FFFF08B50448FFF71CFFBDE80840E9
:10623000012021F0C2BA00BFF888020007B5FEF7BE
:1062400087FD084B984200D040B9002101A8FEF715
:1062500029FD18B99DF8040021F0D5F903B05DF8C7
:1062600004FB00BF038000F07FB51422002101A8C9
:1062700022F038F8044B01A94FF0FF30029321F0CF
:1062800088FB07B05DF804FB006A18002DE9F041B7
:106290008CB08846DDE912761D460446002847D0BA
:1062A000002945D0002F43D0002E41D013F00F031A
:1062B0003ED120482049A360002A18BF0146E3616F
:1062C000C4E90013404609A917F0E2FB68BB204669
:1062D000099917F098F82946204617F094F869466E
:1062E000404617F074FC00BB6946204617F077F86B
:1062F000404603A917F076FCB8B9204603A917F069
:106300006EF806970127204645F0005506A9079725
:10631000089517F064F8204609A909960A970B9585
:1063200017F067F8204617F01FF90CB0BDE8F081B0
:106330002120FAE700010104000100042DE9F047E3
:1063400092B08846DDE91A571C460646DDF8709083
:10635000002864D0002962D0002F60D0B9F1000F6E
:106360005DD0002D5BD013F00F0358D12D482E497E
:10637000B360002A18BF0146F361C6E90013404626
:106380000FA917F085FB002846D130460F9917F06A
:106390003AF82146304617F036F86946404617F07D
:1063A00016FC002838D16946304617F018F84046E8
:1063B00003A917F017FC78BB4FF001083046DFF84F
:1063C0006CA003A917F00BF844F00054304606A95E
:1063D0000695CDF81C80CDF820A00997CDF828802F
:1063E0000B9416F0FCFF304609A916F0F8FF304672
:1063F0000CA9CDF83090CDF834800E940F95CDF8DF
:106400004080CDF844A016F0F4FF30460FA916F0F6
:10641000F0FF304617F0A8F812B0BDE8F087212051
:10642000FAE700BF03020104030200041000002089
:106430002DE9F04F97B0894690461F460546DDF896
:1064400080A0002800F0BD80002900F0BA803AB199
:10645000229B002B00F0B580239B002B00F0B18025
:10646000BAF1000F00F0AD80219B002B00F0A98055
:1064700077B13C680026229B43440293464509D3EA
:10648000002F00F0A08000203C6017B0BDE8F08F26
:106490003C46EFE75CB1229B219A9B5D125D013483
:1064A0005340239A04F00F0493550136E6E7A8EB16
:1064B000060BBBF10F0F58D9444B4846C5E90034D1
:1064C000AC60EC6113A917F0E3FA0028DDD128468F
:1064D00013992BF00F0B16F096FF5946284616F02D
:1064E00092FF484604A917F072FB0028CDD1284638
:1064F00004A916F074FF484607A917F073FB00289B
:10650000C3D1284607A916F06AFF01232299304A11
:10651000CDF828A00B930C928A190D9228464BF0C7
:1065200000520AA90E9303920F9216F058FF2846C4
:106530000DA916F054FF239B039A9919012310917A
:1065400011931292224A284610A9CDF84CA0149318
:10655000159216F04EFF284613A916F04AFF28465A
:1065600017F002F85E4400288FD1229B03EB060B44
:10657000239B1E44029B5B4501D146467EE7ACB996
:10658000219B2246CDE900A3494610232846FFF768
:106590007DFE00287FF479AF0AF1100212F8013D68
:1065A0000133DBB213700BB99245F7D1219A1BF876
:1065B000013B125D0134534006F8013B04F00F0427
:1065C000D8E7212061E738465FE700BF03030004F6
:1065D000100000202DE9F04F99B00F4614469B465D
:1065E0008046229EDDF89890289D002800F0B28019
:1065F000002900F0AF80279B002B00F0AB80BBF19F
:10660000000F00F0A780249B1BB1239B002B00F000
:10661000A1803CB1259B002B00F09C80B9F1000FBC
:1066200000F09880C6F10F03DBB2032B06D80121DE
:10663000DB0001FA03F3A34240F28C80022D00F04C
:1066400089806B1E0F2B00F2858015F0010A40F047
:106650008180F31F062B7DD83F4B09EB0401994243
:1066600078D23E4B3846C8E9003AC8F808A0C8F8C6
:106670001CA015A917F00CFA0346002866D1404665
:10668000159916F0C0FE404645EA064116F0BBFEDD
:106690004046249916F0B7FE2146404616F0B3FE58
:1066A000384603A917F093FA034600284ED1404616
:1066B00003A916F094FE384606A917F093FA03468C
:1066C000002843D10127404606A916F088FE259BE5
:1066D0004046099344F000530A9701930B93239B80
:1066E00046F000560C93249B0D9743F000510E91F9
:1066F0000FA9CDF83CB01097119616F070FE4046E9
:106700000CA916F06CFE404609A916F068FE019B24
:10671000404612A9CDF848901397149316F069FEDD
:10672000279B404615A945F00055159316971795D8
:1067300016F055FE404616F017FF034630B10190A3
:1067400022465146484621F0CDFD019B184619B01E
:10675000BDE8F08F2123F9E7008001200000060446
:106760002DE9F04F9246002293B09B46DDE91C567E
:106770001E9B89460446CDE90622CDE90822CDE9D3
:106780000A22CDE90C22CDE90E22CDE910221A60B1
:1067900028B94FF0210B584613B0BDE8F08F0029FF
:1067A000F7D0BAF1000FF4D0BBF1000FF3D06FEACD
:1067B0000B0102688A42ECD841685A448A42E8D800
:1067C000002DE6D0002EE4D05F4A06EB0B0191428B
:1067D000DFD2B54209D205EB0B02964205D229461B
:1067E0005A46304621F064FD354694F84E0000EBE1
:1067F0000B08B8F10F0F31D8BBF10F0F2ED822685C
:1068000061685A448A4229D01028C2D804F13E0651
:106810005A462946304421F03EFD94F84E001E9A17
:1068200000EB0B0384F84E3000239B461360B2E765
:1068300029463A460EA821F02EFD3D4438E006AB2D
:1068400002930EAB019304F12E03009351461023E3
:106850004846FFF773FD834668B39CE74FF0000B93
:10686000B8F1000F97D047461022102F4FF00001CB
:106870000EA828BF102721F035FD94F84E30002BCC
:10688000D6D0102B85D81A4604F13E010EA80593E8
:1068900021F001FD059B0EA8C3F1100B29461844F9
:1068A0005A4621F0F8FC4FF000035D4484F84E3066
:1068B000227F002AC3D00EAB02930AAB019304F1EE
:1068C0001D033A4600935146002348460396FFF7BE
:1068D000AFFD227F8346012A1AD1102200210EA883
:1068E00021F000FD3A4631460EA821F0D4FC06AB5B
:1068F00002930EAB019304F12E03009300221023A8
:1069000051464846FFF71AFD834600287FF443AFFF
:1069100021681E9B7A1822601A683E443A441A6025
:10692000A8EB07020F2A0DD860684144814209D0C4
:10693000294604F13E00059221F0ADFC059A84F849
:106940004E2028E790468BE7008001202DE9F04F8C
:106950009BB00C46DDE9278A17461E468146299DD5
:10696000002800F02681002900F02381249B002BC1
:1069700000F01F812B9B002B00F01B81B8F1000F52
:1069800003D0269B002B00F0148136B1BAF1000F22
:1069900000F00F81002D00F00C812A9B043B0C2B92
:1069A00000F20781259B0C2B40F003812368A3F1A3
:1069B0001001102900F2FD8001238B4003F0013308
:1069C00023F08073002B00F0F480012F7BD12A9AF2
:1069D000794B204643EA0223C9F80030002316A968
:1069E000C9E90133C9F81C3017F052F88346002872
:1069F00040F0DB804846169916F005FD41464846B2
:106A000016F001FD3146484616F0FDFC204604A96B
:106A100017F0DDF88346002840F0C780484604A9F7
:106A200016F0DDFC204607A917F0DCF883460028A5
:106A300040F0BB80484607A916F0D1FC249B48468D
:106A40000A935E4B0AA90B970C9316F0C8FC269B81
:106A500048460D930DA948F000530E970F9316F07A
:106A6000BEFCCDF840A0484646F0005A10A9119748
:106A7000CDF848A016F0B3FC2B9B484613932A9BF5
:106A800013A943F000531497159316F0A8FC16951C
:106A90001797CDF860A01DB9189B43F08043189359
:106AA000484616A916F0A5FC484616F05DFD83463B
:106AB00038B12C2805D032460021284621F012FC9E
:106AC00073E0AA46002500233D4A16AF394620460A
:106AD000C9E90023C9F80830C9F81C3016F0D8FFFE
:106AE0008346002861D14846169916F08CFC414631
:106AF000484616F088FC3146484616F084FC20468D
:106B000001A917F064F8834600284ED1484601A930
:106B100016F065FC204604A917F064F883460028A7
:106B200043D10124484604A916F059FC249B484649
:106B30000793224B07A90894099316F050FC269B53
:106B400048460A930AA948F000530B9446F00058AF
:106B50000C9316F044FC48460DA9CDF834A00E94D1
:106B6000CDF83C8016F03BFC10951194CDF8488090
:106B70001DB9129B43F080431293484610A916F0AA
:106B800038FC0123139714930E4B484613A9159311
:106B900016F02FFC484616F0E7FC834600288AD101
:106BA00039462A9A2B9821F076FB58461BB0BDE84F
:106BB000F08F4FF0210BF8E7000003040C000020D9
:106BC00000000204100000202DE9F04F97B00C46A1
:106BD00015469A460746DDF88880DDF89090002833
:106BE00000F0A780002900F0A480002B00F0A18015
:106BF000269B002B00F09D80B8F1000F03D0219B55
:106C0000002B00F096803DB1239B002B00F091807B
:106C1000B9F1000F00F08D80259B043B0C2B00F296
:106C20008880209B0C2B40F084802368103B102B25
:106C30007FD8012606FA03F303F0013323F08073B3
:106C4000002B76D0259A3C4B204643EA02233B603A
:106C5000002313A9C7E90133FB6116F019FF83462E
:106C6000002862D13846139916F0CDFB41463846CC
:106C700016F0C9FB2946384616F0C5FB204601A987
:106C800016F0A5FF834600284FD1384601A916F01B
:106C9000A6FB204604A916F0A5FF8346002844D190
:106CA000384604A916F09BFB244B384607A9CDF8BB
:106CB0001CA00896099316F092FB219B38460A9374
:106CC0000AA948F000530B960C9316F088FB239BFF
:106CD000384645F000540DA90D930E960F9416F00A
:106CE0007EFB269B38461093259B10A943F000534A
:106CF0001196129316F073FBCDF84C9014961594E0
:106D0000B9F1000F03D1159B43F08043159338462A
:106D100013A916F06EFB384616F026FC834620B108
:106D20002A460021484621F0DDFA584617B0BDE852
:106D3000F08F4FF0210BF8E7000003040C00002057
:106D40002DE9F04F95B00D46DDE920A6174698468F
:106D500083461E9C002800F0A980002900F0A68030
:106D6000002A00F0A380002C00F0A0801EB1BAF130
:106D7000000F00F09B801F9A0C2A40F09780782229
:106D80000021584621F0AEFA8BF87180CBF80860EC
:106D90004FF00008002E7BD04FF00109444A0294C6
:106DA000CDF80C90049246F00052CDF814A0CDF826
:106DB000189007923F4A0BF110030893CDF82490E6
:106DC0000A923D4A0DF1440A51463846C5E9002869
:106DD000C5F80880C5F81C80019316F059FE0446DA
:106DE000A8BB2846119916F00EFB3146284616F02E
:106DF0000AFB2146284616F006FB38460BA916F07A
:106E0000E6FE044618BB28460BA916F0E8FA3846F9
:106E10000EA916F0E7FE0446C8B928460EA916F0DA
:106E2000DEFA284602A916F0DAFA284605A916F075
:106E3000D6FA284608A916F0DCFA284616F094FB84
:106E4000044640B110224146019821F04BFA2046F9
:106E500015B0BDE8F08F194A0BF140069BF87100A0
:106E600011961749CDF848901392164AC5F808A014
:106E7000012818BF0A4628462A6016F075FB04460A
:106E800018B1202241463046DFE78BF87200DEE77A
:106E90002268CBF840206268CBF84420A2683446D0
:106EA000CBF8482001228BF87220D0E72124CEE7CE
:106EB0000C00002010000020000002042000002030
:106EC00001000204010003042DE9F04F95B00546CE
:106ED00091461C460E461E9F21B92124204615B01E
:106EE000BDE8F08F002AF8D00028F6D0002BF5D0AE
:106EF000002FF2D01F9B002BEFD0209B002BECD05B
:106F000000211960D0E900321B1952F1000228BF9C
:106F100001210029E1D16FF01F0199424FF00F03C9
:106F20009341DAD31F9B9F4209D21F9A3B199A4281
:106F300005D2394622461F9821F0BAF91F9F95F8CD
:106F4000708005F1600B18F0EF03009300F0C9802A
:106F500008EB04030F2B0BEB08000ED82246394632
:106F600021F099F995F87000209B204485F8700075
:106F70000020824618605446B0E705F14002102B0D
:106F8000019208D1134605F1200253F8041B5B451A
:106F900042F8041BF9D1C8F11003DBB21A46394696
:106FA000009321F078F995F87210019B9D489E4A54
:106FB0000293002908BF02460123DFF878C2039339
:106FC00004921F9ACDF814B00693CDF81CC0089215
:106FD000019A0993CDF828C00B92944A0C930D9016
:106FE000934B95F87100012818BF1346002914BF70
:106FF000012203221343336000234846C6E90133CC
:10700000F36111A916F044FD82460028B3D1304641
:10701000119916F0F8F95146304616F0F4F910219E
:10702000304616F0F0F948460EA916F0D0FD82461B
:107030000028A0D130460EA916F0D1F9484611A972
:1070400016F0D0FD8246002895D1304611A916F0E1
:10705000C6F9304602A916F0C2F9304605A916F065
:10706000BEF9304608A916F0C4F930460BA916F04F
:10707000C0F9304616F078FA824628B12022002165
:10708000019821F02FF976E7D5E90032103342F16B
:107090000002C5E9003295F8703085F8720023448B
:1070A000102B04D185F87030209A136063E7009BA1
:1070B000E21A0F2A0AD81946103C5846394444446B
:1070C00021F0E9F8102385F87040EDE714461F9B86
:1070D00085F8700010331F93209B20991B68103394
:1070E0000B60009B14F00F0207EB030100F0A4807B
:1070F000102C5FFA84FA40F28B8024F00F0808EB22
:107100000301584639440AF00F0A21F0C4F885F803
:1071100070A0D5E9003213EB080342F1000295F8A4
:107120007210C5E900323F483F4A0123002908BFD9
:10713000024605F1400ACDF808A003930492009A94
:107140001F9C174448F00052059706930792089435
:1071500009930A92354ACDF82CA00C930D90344B2C
:1071600095F871000027012818BF1346002914BFA5
:107170000122032213434846C6E901773360F761D1
:1071800011A916F085FC044600287FF4A7AE30460E
:10719000119916F038F92146304616F034F9414677
:1071A000304616F030F948460EA916F010FD044698
:1071B00000287FF493AE30460EA916F010F9484629
:1071C00011A916F00FFD044600287FF487AE304663
:1071D00011A916F004F9304602A916F000F930465C
:1071E00005A916F0FCF8304608A916F002F9304659
:1071F0000BA916F0FEF8304616F0B6F90446002842
:1072000000F0D68020223946504621F06BF865E622
:1072100022460024584621F03EF8209B85F870A0B5
:107220001C605BE6200000200C000020000002042F
:107230000000030410000020102C05F1400840F26B
:10724000A580009BA4F1100A53443B4403F11002B3
:1072500053F8040B93424BF8040BF9D1102395F823
:107260007220DFF868C1564885F87030002A08BFE0
:1072700060460123CDF80880039304901F98059180
:107280004AF0005106930791089095F87100099310
:107290000A91CDF82C804B490C934B4B4FF0000BCF
:1072A000012818BF0B46002A14BF012203221343F2
:1072B00033604846C6E901BBC6F81CB011A9CDF839
:1072C00034C016F0E5FB034600283CD1119901902B
:1072D000304616F098F8019B3046194616F093F8A0
:1072E0005146304616F08FF848460EA916F06FFC4E
:1072F000034640BB30460EA916F071F8484611A966
:1073000016F070FC0346F0B9304611A916F067F884
:10731000304602A916F063F8304605A916F05FF86A
:10732000304608A916F065F830460BA916F061F84A
:10733000304616F019F940B10090202259464046D7
:1073400020F0D0FF009B1C46C8E51F9A85F872000C
:1073500052441F92D5E9003213EB0A0342F10002B6
:10736000C5E90032209B209A1B685744103B2344F8
:10737000136005F1200308F1200258F8041B904522
:1073800043F8041BF9D14FF01008C2E605F12003C1
:1073900005F1600258F8040B904543F8040BF9D14D
:1073A0002246584620F077FFA04685F87040B0E6A8
:1073B000209B209A1B684344136085F872008DE57A
:1073C0000C00002000000204000003042000002044
:1073D0002DE9F04FA5B00446924698460D469DF81B
:1073E000B8902F98DDF8C4B0002900F03981002A48
:1073F00000F03681002C00F03381002B00F030814A
:10740000A9F104030C2B00F22B8194F87060102E6C
:1074100004D09DF8C0309E4200F22281D4E90032AF
:1074200016F00F0114BF37460027FF1842F1000283
:107430000991D4E9023E53EA0E01C4E9007294F8BE
:1074400071C01AD057EA020117D1BCF1010F4A46A8
:10745000404604F110010CD116F0A8F8074620B1FF
:107460000021404620F03EFF2C27384625B0BDE8DD
:10747000F08F20F010FF0027F7E794F8721031B971
:1074800053EA0E013ED1A7F1100111433AD104F1A4
:10749000600204F14003BCF1000F1DD10F2E88BF24
:1074A00020A80C21CDE904200022CDE90031284696
:1074B00033465146CDE90698CDE90222FFF746FA58
:1074C0000746002800F0C68000214A4640468BF857
:1074D000001020F007FFC8E70F2E88BF20A8CDE9D5
:1074E00003200022CDE901220C22514600922846B9
:1074F0003246CDE90598FFF767FBE1E700208BF8FE
:107500000000B8E7590FDB001BBA21937B0F43EA59
:10751000C2031BBA229304F160030B93012341EAD7
:10752000CE010C93FF00099B09BA3FBA46F0005206
:10753000209123970D9213B9002E40F0888004F11A
:1075400040030E93012347490F93109120A91191F5
:107550004549102E1293139114901593169205D14C
:1075600000231493169B43F0804316930123CDF818
:107570005C80189349F000533C4A19933C4B5046A9
:10758000BCF1010F18BF134643EA092343F002037D
:107590002B6000231DA9C5E90133EB6116F078FAD1
:1075A000074600287FF461AF28461D9915F02BFF90
:1075B0003946284615F027FF3146284615F023FFA7
:1075C00050461AA916F003FB074600287FF44DAF7A
:1075D00028461AA915F003FF50461DA916F002FB14
:1075E000074600287FF441AF28461DA915F0F7FE95
:1075F00028460EA915F0F3FE28460BA915F0EFFE5C
:10760000284611A915F0EBFE94F87130012B03D137
:10761000284617A915F0E3FE284614A915F0E9FE3F
:1076200094F871301BB9284617A915F0E2FE2846D8
:1076300015F09AFF074668B194F8711019B94A46D7
:10764000404620F04FFE00238BF800300DE704F198
:10765000200376E70F2E3FF651AF8BF8006004E76A
:10766000212702E720000020100000200000020473
:10767000000003042DE9FF4700230E461746044689
:10768000009300285BD00AB1002958D037F00308D6
:1076900007F0030A25D04FF000094FF0E063C4E97A
:1076A0000039012301962046029301A948F00053B6
:1076B000C4F80890C4F81C90039315F09AFE414654
:1076C000204615F0A0FE204615F04EFF054640B1BD
:1076D00042464946304620F005FE284604B0BDE843
:1076E000F0874FF00009BAF1000F2AD04FF0E063A5
:1076F000C4E900390123CDF804D00293124B20468F
:1077000001A9C4F80890C4F81C90039315F071FE09
:107710000421204615F077FE204615F025FF05468A
:1077200008B13A46D5E7034600994644DA000133EA
:1077300021FA02F29A4506F8012BF7D1CDE721256F
:10774000CBE75546C9E700BF04000020F0B504466A
:10775000174622780846022A8DB02FD0032A31D04E
:10776000012A33D114261A4A0C34026000229D01EA
:10777000C0E90122C2612946019015F044FE0123AF
:10778000019846F0005606A945F00055039704936A
:10779000059506940793089609940A930B9615F09D
:1077A0001EFE019803A915F01AFE019809A915F00B
:1077B00020FE019815F0D8FE0DB0F0BD2026054A38
:1077C0000C34D2E72026044A0C34CEE72120F3E71C
:1077D00000020103000301030004010310B591B18D
:1077E00088B10023C0E90133084B00F10C0203F11A
:1077F000200153F8044B8B4242F8044BF9D1022389
:107800000370002010BD2120FCE700BFE4890200C6
:1078100010B591B188B10023C0E90133084B00F1E4
:107820000C0203F1200153F8044B8B4242F8044B45
:10783000F9D103230370002010BD2120FCE700BF15
:10784000058A02002DE9F0411546804686B00028E1
:1078500059D0002957D0002A55D00278022A48D0A2
:10786000032A4BD0012A4ED1142600F10C07021D29
:107870009E4248D813685268D8008DF80F00580906
:107880008DF80E00580B8DF80D00580D8DF80C007A
:10789000D00000EB53708DF80B0003F03F0350094C
:1078A000372B8DF80A004FEA52304FEA52528DF8CA
:1078B00009008DF808204046144A94BFC3F13803EC
:1078C000C3F17803019115F0ECFF0199044660B90A
:1078D000082340460DEB030215F0E3FF044620B9F0
:1078E00032463946284620F0D6FC204606B0BDE890
:1078F000F0811C2600F10C07021DB9E7202600F1DB
:107900000C07021DB4E72124EFE700BF298A02001B
:107910002DE9F04186B090461D4604460C9F002894
:1079200033D097B302B983BB4B1EDBB2022B2CD8EA
:10793000174AD65C0D9B9E4227D80023080200F10F
:10794000407000F580702946C4E901332060E3618E
:10795000204615F058FD01236946204645F00055A4
:1079600046F00056CDF800800193029503970493EA
:10797000059615F034FD204603A915F03AFD204682
:1079800015F0F2FD06B0BDE8F0812120FAE700BF56
:10799000268A0200F0B50F4616461D46044693B0EF
:1079A00010B9212013B0F0BD0029FAD0002AF8D078
:1079B000002BF6D0002331461A46384616F01DF843
:1079C0000028EFD1304602A915F0BEFF0028E9D10A
:1079D00038683449029A88426B695ED19342E0D399
:1079E0002B68002BDDD14FF060623846C4E90023DC
:1079F000A360E36101A916F04BF80028D2D10199E8
:107A0000204621F4F061019115F0FDFC69462846FD
:107A100016F03EF80028C5D12046009915F0F3FC79
:107A2000384609A916F0D3F80028BBD1204609A989
:107A300015F0D5FC38460CA916F0D4F80028B1D1C1
:107A400020460CA915F0CBFCEB684BB1284606A9E3
:107A500016F0BDF80028A5D1204606A915F0BFFCF8
:107A6000304603A916F0BEF800289BD1204603A992
:107A700015F0B5FC28460FA916F0B4F8002891D1EE
:107A800020460FA915F0B5FC0325204615F06CFD26
:107A9000012887D1013DF8D184E7B3EB420F9FD293
:107AA0007FE700BF200000B070B50E4615460446C3
:107AB0008AB000285CD000295AD0002A58D001236F
:107AC00029461A46304615F098FF00284ED1B36873
:107AD00013F4C04F4CD0AB6803F4C043B3F5005F60
:107AE00046D1254BA060C4E90030E06107A93046CB
:107AF00015F0CEFF002839D12046079915F083FCF8
:107B0000012302934FF00053204601A9039315F07F
:107B100066FC304604A916F065F838BB204604A977
:107B200015F05DFCEB681BBBAB6803F4C043B3F519
:107B3000005F1DD16946284615F02BFFB0B9009BA8
:107B40006A699A4216D32A6943F0005307920122C8
:107B5000204607A908920325099315F04AFC204600
:107B600015F002FD012801D1013DF8D10AB070BD28
:107B70002120FBE71D20F9E7000001021FB50446A4
:107B800098B191B100230A4A8360C0E90023C36120
:107B9000012301910293074B01A9039315F029FCDE
:107BA000204615F0E1FC04B010BD2120FBE700BF2A
:107BB000000008430400002010F1860F12D010F1DD
:107BC000850F0ADA10F1950F0FD010F1930F14BF43
:107BD0004FF0FF306FF06F007047003818BF012082
:107BE000404270476FF0710070470148704700BF16
:107BF00000B2FFFF0138082812D8DFE800F00511B5
:107C0000090B0D1111110F00074B00200B6070477D
:107C1000064BFAE7064BF8E7064BF6E7064BF4E7A8
:107C20006FF07100704700BF1271C0001271000147
:107C300012718001127109024171FF00F0B50E4608
:107C40000021B3B00446154622A83D221F462191CB
:107C500020F048FB00213C2212A8119120F042FBA9
:107C60000021242208A820F03DFB207808A9FFF776
:107C7000C1FFFFF7A1FF0446002841D14FF4804126
:107C800008A816F02BF8BDF82030BDF8224003F408
:107C90004F420734B2F5824F4FEAD40433D1DBB2FE
:107CA000412B30D1224611A93846079417F0D1FF55
:107CB0002246284621A917F0CCFF07AB04934123A5
:107CC000039321AB0293079B1D48019321AB0093C3
:107CD00011AA234608A916F0A6FCFFF76DFF04467B
:107CE00070B9BDF82030304603F44F41B1F5824FF2
:107CF000079A21A921D1DBB2412B1ED117F065FFD4
:107D0000204633B0F0BD63002246013311A9384646
:107D1000079317F0D4FF042322460DF1850128466E
:107D20008DF8843017F0CBFF611C21AB224619443B
:107D300005F10C0017F0C3FFBFE717F069FFDFE79D
:107D40000000020908B5064A064B002914BF114677
:107D5000194601F089F9BDE8084015F0C5BF00BF1C
:107D600008000002090000022DE9F04104681E46E7
:107D700024F04003802B05468846174692B002D077
:107D8000B4F5807F43D11C2200210BA820F0AAFA71
:107D9000224A234B0121B8F1010F18BF13460A9361
:107DA0002B1D0193E4081F4B44F0005402910AA8D4
:107DB00003940497059106930796089101A90993E6
:107DC00015F00DFB04A90AA815F009FB07A90AA8DC
:107DD00015F00FFB29680AA8C90815F014FB10213B
:107DE0000AA815F010FB15F0BBFB98B90AA815F00E
:107DF00013FB4FF098435A6CD202FCD55C6D15F022
:107E0000B1FB04F47024204612B0BDE8F0816FF09D
:107E10007100F9E74FF0FF30F6E700BF0001010401
:107E200000010004100000202DE9F04188461107F0
:107E3000064615461F4698B05DD1046824F04003FD
:107E4000802B02D0B4F5807F58D11C22002111A8CC
:107E500020F048FA2C4A2D4BE408B8F1010F18BF66
:107E6000134601221093331D0193294B44F0005413
:107E70000292039404970592069307970892099338
:107E80001E9B1F990A9345F000530B9210A80C9368
:107E90000D9101A90E920F9315F0A1FA04A910A853
:107EA00015F09DFA0AA910A815F099FA0DA910A8C5
:107EB00015F09FFA07A910A815F09BFA316810A8D1
:107EC000C90815F0A0FA294610A815F09CFA15F07B
:107ED00047FBB0B910A815F09FFA4FF098435A6CC1
:107EE000D202FCD55C6D15F03DFB04F470242046F5
:107EF00018B0BDE8F0816FF02100F9E76FF01F00C6
:107F0000F6E74FF0FF30F3E7030201040302000439
:107F10001000002030B5154B87B00293144B03902E
:107F2000049346F611030D46059300F023F8142838
:107F3000044616D1684615F07CFF4FF0A843032293
:107F400002A95A6319601D619A63DA6B9207FCD12A
:107F5000142C02D1684615F07AFF00F03BF8044675
:107F600001E00028E9D0204607B030BD703900207C
:107F700004000020144A38B5D2F8803243F00103DF
:107F8000C2F88032114B5B68C3F3080343B14FF072
:107F9000A842D36B13F0430FFBD11424204638BD05
:107FA0004FF0A843DC6B14F04304FBD1084D2B6861
:107FB0001BB90421284609F0D1F82B68013343F09E
:107FC00000432B60EAE700BF0080005000ED00E0B6
:107FD00070390020014B00205B68704700ED00E025
:107FE000012300F01F02A0F506200949A0F550600A
:107FF0004009934051F820201A4341F820200549B8
:1080000051F8202022EA030341F82030704700BFD6
:1080100074390020883900200121A0F506230F4A79
:10802000A3F550635B0900F01F0001FA00F052F85D
:10803000231008430A4942F82300D1E900300344E1
:1080400088680344C868096903445B1802BFC2E931
:108050000033C2E902331361704700BF8839002042
:10806000743900202DE9F04FA9B002921F46DDE9D6
:10807000328904460822CDE90301414021FA02F386
:108080004B40980702F1080218BF9B00202A1C44AD
:10809000F4D18123B4FBF3F303EBC313E41A784B5D
:1080A00004F506241B7804F55064002B3CD1FCF742
:1080B000D5FF014620B16FF0910029B0BDE8F08FE7
:1080C0004022059008A820F00DF94022059918A833
:1080D00020F008F96B4EDFF8C4A1334603F10F0B13
:1080E000102208A9DAF80000CDF800B005931FF0BF
:1080F00098F800220146059B103608AD914244D104
:10810000CDF800B01022DAF8000018A91FF092F89C
:108110004FF0000B034618AD5B4542D15A4B9E42CF
:10812000DBD10122564B1A7081250026DFF86CA1A5
:10813000A4F50623554AA3F550635B0952F82320A2
:1081400004F01F01CA40D2073ED4514A52F823001E
:10815000C84010F001002DD0002E08BF2646812314
:10816000A4F50724A4F2FF44B4FBF3F303EBC31319
:10817000E41A04F50624013D04F55064D8D1029BAD
:10818000D3B1CEB1349B1E6063E055F8040BCDE94A
:1081900006230591FFF724FF069A079B05990132F4
:1081A000ACE755F8040B05930BF1010BFFF734FF17
:1081B000059BB1E7029B13B96FF08B007DE7349B01
:1081C000002E45D01E6078E7B8F1000F02D00023E2
:1081D000C8F80030B9F1000F02D00023C9F8003010
:1081E0004FF0100B00233A462146DAF80000CDF894
:1081F00000B00CF045FB70BBB8F1000F01D0C8F81F
:1082000000B03B68234A93422FD1B8F1000F11D040
:10821000B9F1000F0ED04B462146DAF8000018AA3B
:108220000CF082FBB8B9D9F80030D8F800209B1ABE
:10823000C9F80030D7E90223DDE90310834208BF03
:108240008A428CD1029B13B17B68012B15D0349BE1
:108250001C60002031E7104B984206D01233984240
:1082600003D0133B9842E5D025E72146DAF8000019
:108270000CF0A0FB0028DDD09EE76FF084001CE727
:10828000B96B0020006D08000071080074390020EF
:1082900088390020105D175EFFDF00F0D80A00204B
:1082A0002DE9F04F87B08246894698461646DDF89C
:1082B00040B02AB1002B4ED040F26C739A424DD898
:1082C000BBF1010F4DD8002406F1100739460120FB
:1082D000059417F0FAFA0546002845D021463A469B
:1082E00020F000F805ABCDE9014300942B460122B4
:1082F00050464946FFF7B6FE044680B110F18C0F98
:1083000008BF6FF08D043A46002128461FF0EAFFAF
:10831000284617F0EBFA204607B0BDE8F08F144B63
:10832000C5E902A92B60C5F804B02EB1324641461A
:1083300005F110001FF0AFFF0E483B462A46059995
:1083400000680CF005FA18B90598FFF749FEDAE75E
:108350006FF09104D7E76FF08604DCE76FF09104CB
:10836000D9E76FF08504D6E76FF08C04D3E700BF40
:10837000105D175ED80A00202DE9F0438DB08146CC
:10838000DDE914780C4615461E469BB1B8F1000F86
:1083900005D16FF0860420460DB0BDE8F083002FB4
:1083A000F7D0B7F1005FF4D3C3F1005303F5803386
:1083B0009F42EED81022002108A81FF093FF002250
:1083C00007AB029305AB019306AB214600934846E9
:1083D00008ABCDE90522FFF745FE04460028DAD1B7
:1083E0000599DEB1A94203D80029D2D115B1D0E751
:1083F0000029FBD0491BB14228BF3146069B0948E2
:10840000C8F8001000913A46079900682B440CF018
:1084100037FA002818BF6FF09104BCE7A942E9D2EF
:10842000B7E700BFD80A002030B58DB00C4605462E
:108430001022002108A81FF055FF002207AB02936D
:1084400005AB019306AB21460093284608ABCDE966
:108450000522FFF707FE0446D0B9099B012B1AD06D
:10846000104B079918680CF0A5FAB8B901220798C3
:108470000D49A0F50623A3F550635B0900F01F0525
:10848000AA4051F823506A4041F82320FFF7C4FD69
:1084900020460DB030BD6FF08404F9E76FF0910411
:1084A000F6E700BFD80A0020743900202DE9F0411A
:1084B00096B006AD00F130060446884617460FCE4A
:1084C0000FC596E80F0085E80F00202200210EA8B6
:1084D0001FF008FF0EA815F05AF8034604F130000B
:1084E00023B16FF0920016B0BDE8F08123681849FF
:1084F00023F47E128A4217D1C3F30543CDE90473F6
:108500000D9BCDF80C80029309AB0193089B221DB3
:1085100000930EA99DF8183015F057F80028E0D107
:10852000626A3A446262DEE70A4B9A420CD10D9BC2
:10853000CDE90287019309AB0093221D9DF8183005
:108540000EA9FEF7FDFBE9E76FF08500CBE700BF62
:10855000000140050002400530B5048804F4E04302
:10856000B3F5005F24D1C4F30223042B20D181F0A2
:10857000AA6383F4807333F47E1309D081F0AA6375
:1085800083F4007333F47E130CBF0123002300E057
:1085900001230BB1C1F30543224D21F47E11A94201
:1085A00011D005F58075A94224D06FF0850020E038
:1085B00042F204039C4204D181F0052383F480132A
:1085C000E0E70023E5E7B4F5105FEED14188B1F5AF
:1085D000807F03D021F04001802920D1191F0C2970
:1085E0001DD8DB071BD4073A072A34BF00206FF0E1
:1085F000860030BDB4F5105FD7D14188B1F5807FDA
:1086000003D021F04001802909D1043B0C2B06D86E
:108610002AB10C2A0CBF00206FF08500E9E76FF04B
:108620008600E6E7000140052DE9F04F2DED028BB5
:1086300099B08946DDE9286508EE102A9B468046F8
:10864000DDF894A02C9F38B96FF08604204619B04D
:10865000BDEC028BBDE8F08F0029F5D0249B002BE8
:10866000F2D0269B13B9279B002BEDD10EB9002D1C
:10867000EAD117B92D9B002BE6D12E9B002BE3D01E
:108680002A9B002BE0D0524659464046FFF764FF34
:1086900004460028DAD1202201460DEB02001FF02B
:1086A00021FE2022214610A81FF01CFE08A814F06D
:1086B0006EFF10B16FF09204C8E718EE102A494619
:1086C000404610AB15F0C9FC04460028BED12D9BD6
:1086D0009D4248D8BE4208D273199F4205D2314606
:1086E0002A4638461FF0E4FD3E46224A2BF47E130C
:1086F000934206D002F5807293421FD06FF0880437
:10870000A4E72B9B2A4606932A9B0396CDE9047384
:10871000279B10A90293269B08A8CDE900A3249BC0
:10872000FDF758FF21288FD02C2802D16FF0940438
:108730008CE70028BED12E9B1D6087E7BAF10C0F95
:1087400014D12A9B2A4606932B9B0396CDE90473EA
:10875000279B10A90293269B08A8CDE900A3249B80
:10876000FEF732FADEE76FF089046FE76FF08504F9
:108770006CE700BF000140052DE9F3470A9F0C4656
:1087800091469A4605460C9E10B96FF0860458E053
:108790000029FAD0002AF8D04B880733BAEBD30F60
:1087A000F3D30B88B3F5105F4FD187F0AA6383F43E
:1087B000807333F47E1306D087F0AA6383F40073CA
:1087C00033F47E1303D1C7F30543102BDDD8A82261
:1087D000002128461FF086FD1F4A27F47E1393428E
:1087E00003D002F5807293422FD1A84648F8047B4B
:1087F000204643465246494615F02FFC044600BB2E
:10880000019001A9404615F09FF808BB019AA2F11A
:1088100010011029B9D801238B4003F0013323F054
:108820008073002BB1D00E9B1A440D9B9A42ACD89A
:10883000304669691FF02FFD9DF82C306E6185F878
:108840003030204602B0BDE8F0876FF08504F8E7CD
:108850006FF09204F5E700BF0001400538B51546FA
:108860000446D0B1C9B1C36CA3B903680C4A23F460
:108870007E13934204D10C2D04D06FF0850008E0E4
:10888000102D0AD82A4604F13C001FF004FD0020F8
:10889000E56438BD6FF08800FBE76FF08600F8E70D
:1088A0000002400530B500B30368114D23F47E1477
:1088B000AC4206D005F58075AC4204D06FF088005C
:1088C00012E0DC0311D41B0C13F03C0F0DD003F0AD
:1088D0003F03102B09D8436A002BEFD1836A002B8A
:1088E000ECD1C0E90D12184630BD6FF08600FBE7F1
:1088F000000140052DE9F0438DB0002104461746E4
:1089000004A820221D46DDF85080DDF858901FF0A5
:10891000E9FC04A814F03BFE064620B16FF092007B
:108920000DB0BDE8F083159BAB4252D3002C53D061
:1089300017B1B8F1000F01D1002D4DD1B9F1000FE1
:108940004AD02368002B4AD0002D4BD0264A23F46E
:108950007E13934214D002F58072934212D0234AC0
:10896000B3F1052F08BF1646636A6BB1204B9E42D8
:1089700024D003F580739E4210D06FF08500CFE7BE
:108980001B4EF1E71B4EEFE7A26A002AEED111461B
:108990002046FFF78BFD0028E8D0C1E72B46CDE944
:1089A00001890097221D04A904F13000FEF78CFA1A
:1089B0000028B3D1A36A2B44A362B1E72B46CDE9CB
:1089C00001890097221D04A904F13000FDF7C8FEBB
:1089D000EEE76FF08900A3E76FF08600A0E76FF085
:1089E00088009DE728469BE700014005000510052B
:1089F00000015005000250052DE9F04F05468DB0ED
:108A00009146DDE916AB2022002104A81E46199FDD
:108A10001FF068FC002D7FD02B68189AC3F305481F
:108A2000904576D8BAF1000F76D0BBF1000F73D025
:108A3000002F71D00022CAF80020002B6FD06B6A83
:108A40006BB32B68374A23F47E13934235D1364CEF
:108A500004A814F09CFDF8B9334B9C423CD003F5BC
:108A600080739C424FD195F8A130002B4ED1F6B2C5
:108A70005B46CDE90196CDF80CA0CDF800802A1D0B
:108A800004A905F13000FEF7A3FC08B36FF09204CF
:108A900004A814F086FD60B16FF0920409E0AA6AA0
:108AA000002ACED111462846FFF700FD04460028D3
:108AB000C7D020460DB0BDE8F08F1C4A934205D0C8
:108AC000B3F1052F1A4C18BF0024C1E7194CBFE7BA
:108AD0000446C7F80080DBE795F84C30B3B9F6B22E
:108AE0005B46CDE90196CDF80CA0CDF800802A1D9B
:108AF00004A905F1300014F073FE04460028C5D126
:108B0000AB6C3B60C4E76FF08504C1E76FF086048F
:108B1000BEE76FF08904CCE76FF08604C9E76FF019
:108B20008804C6E700014005000150050002400529
:108B300000051005000250052DE9F04FB3B00E46B8
:108B4000DDE93C7400210546914602A820229A46A0
:108B50001FF0C8FB202200210AA81FF0C3FB20221F
:108B6000002112A81FF0BEFB202200211AA81FF02E
:108B7000B9FB00213C2223A822911FF0B3FB002E59
:108B800000F09480B9F1000F00F09080002F00F009
:108B90008D803E9B002B00F08980409B002B00F0D5
:108BA0008580B6F80080B6F802B008F4E042B2F56D
:108BB000804F7BD04A4A4B492A4042F010628A4299
:108BC00002D06FF085040FE00BF10702BAEBD20F71
:108BD0004FEAD2056AD33F9B9D427ED81AA814F073
:108BE000D6FC28B16FF09204204633B0BDE8F08F78
:108BF000002201A91AA80192FEF7C0FF0028F1D1B6
:108C0000019A394922F07F428A420192D9D947F22A
:108C1000121290451AD047F241129045D1D1A54287
:108C200044D8BBF1FF0FCCD1304B03340A933E9BA9
:108C300024F0030416933F9BCDE90D07033323F083
:108C400003030F9415901793139512E0BBF5807FE3
:108C5000B7D1274B02340A9322AB16934023013736
:108C600024F0030417936B000D900E970F9415904A
:108C7000139352464946304602AB15F0EEF90446CE
:108C80000028B1D10C9B129043F400531AA80C9306
:108C900014F07DFC0028A5D112AB0AAA02A91AA8DB
:108CA000FEF778FE064620B148288AD06FF0860489
:108CB0009AE747F21213984502D0409B1D6093E754
:108CC0002A463E9822A91FF0E6FA324622AB3344E8
:108CD0000136412EF1D01A70F8E76FF0890483E76E
:108CE0000000FFF60000020901020100200000B0B0
:108CF00020000080F8B5134642880C460732072A48
:108D00004FEAD20104D0A14202D06FF0860019E0F0
:108D100047680588C6682022184600211FF0E2FA3D
:108D20003F0A0346002F4BD1002CEED041F2010246
:108D3000954205D0B5F5885F02D0B5F5905F02D1B8
:108D400000205C60F8BDB5F5105F07D1182C03D08A
:108D5000202C01D0102CD8D11C60F1E705F44F4233
:108D6000B2F5824F02D06FF08500EBE7EAB2122A2B
:108D700016D1202CF7D1144A25F0FF05B5F5E24FA6
:108D80001A6013D14FF4804216F470509A6013D0D9
:108D900016F48640E7D19A6842F480629A60D1E77F
:108DA000412AE0D1202CDED1084AE5E7B5F5824F13
:108DB000ABD14FF40052E7E79A6822F48062EDE706
:108DC0006FF08B00BEE700BF20000080200000B0E5
:108DD0002DE9F04F9A460388144603F44F42B3B08E
:108DE000B2F5824F80460F463E9D02D06FF085005F
:108DF00002E021B96FF0860033B0BDE8F08F002C9F
:108E0000F8D0002DF6D0DAB2122A0CD0413A012A5D
:108E1000ECD82B68002B00F0C2800733B4EBD30FE3
:108E200000F0BF80E6E723F0FF03B3F5E24F3BD14C
:108E300043882B609BBBE3002B602B68B3F5807FDE
:108E4000D4D10023184662493E19214411F801CDBE
:108E500016F8012D1043B2EB0C020CBF4FF0FF3C93
:108E60004FF0000CB7420CEA030343EA0203EDD1D2
:108E70000028BFD0002BBDDA3C9B9C4200F2A580AD
:108E80002246394650461FF006FAB8F8000051460F
:108E90002A6815F0CDF83D9B00201C60ACE7073335
:108EA000B4EBD30FC9D0A5E7B3F5824F40F08A8069
:108EB0000B78042B9ED12022002101A81FF012FA6A
:108EC00001A814F064FB002866D10090694601A84F
:108ED000FEF754FE00285FD1009B3E4A23F07F43FB
:108EE000934283D94FF000093E22494622A8CDF88B
:108EF00084901FF0F7F901232022494609A88DF834
:108F0000843004F1FF3B1FF0EDF97B1C2022494621
:108F100011A80D93CDF838B01FF0E4F9422321AE2B
:108F20002022494619A8169315961FF0DBF9422313
:108F30001E934FEACB035B08B3F5807F1D962B6031
:108F40000BD003D8E02B3FF451AF53E7B3F5C07F0C
:108F50003FF44CAFB3F5047FF5E71F4B09AA099323
:108F600011934FF400530B934FF48043139340231A
:108F700011A91A9301A819ABFEF70CFD2B68073352
:108F8000DB085A002BB900283FF476AF32E706F829
:108F9000019B013AFBD2F6E76FF092002CE7E30069
:108FA0002B602B68FF2B3FF467AFB3F5807F7FF416
:108FB0001DAFB8F80230B3F5807F3FF417AFFF2341
:108FC0002B6059E76FF0960016E76FF0890013E702
:108FD000698A020001020100200000802DE9F047AB
:108FE0008AB01746DDE9129498460E4609B9002A60
:108FF00035D1B8F1000F02D1B9F1000F2FD174B300
:10900000184B984207D00133984210D06FF085007A
:109010000AB0BDE8F0871C234FF0020A23602368E2
:109020004B4509D900236FF089002360F0E7202326
:109030004FF0030A2360F2E702A814F0A8FA0546ED
:1090400050B93B4632465146CDE9008902A8FEF7A9
:109050005FFC0028DCD025606FF09200D8E76FF04D
:109060008600D5E70800000230B50D46044689B0F9
:1090700000B3031D6C22002118461FF033F90F4A7C
:10908000954206D0013295420ED06FF0850009B0AE
:1090900030BD022269462270FEF7A0FB00280CBFFB
:1090A00000206FF09200F2E7032269462270FEF77B
:1090B000AFFBF3E76FF08600E9E700BF08000002AE
:1090C00038B5054614F052F9054B1C6814B1237AE3
:1090D000AB4203D114F050F9204638BD2468F5E7BF
:1090E000B039002038B5054614F040F90446291D72
:1090F000034814F000F82046BDE8384014F03CB9AD
:109100009C3900202DE9F743074608460E46904655
:109110009946FFF7D5FF019048B190F87030002BC9
:109120000CBF2E240424204603B0BDE8F08301A820
:1091300002F0AAF904460028F5D1019D6881E87380
:1091400085F87000286085F8098064202E7285F803
:109150000C9085F80D9003F0C9FB012E6861019811
:1091600025D880F8C0400022C0E92E22A43013F098
:10917000BFFF0198A83013F0BBFF0198AC3013F08B
:10918000B7FF0198B03013F0B3FF0198B43013F07B
:10919000AFFF0199094813F0AEFF0949074813F0E2
:1091A000C7FF0123BB60019B3E713B60BBE718F02A
:1091B000080FD6D1012280F8C020D4E7B0390020B2
:1091C0002BE60100F7B5074601A80E4614461D46DA
:1091D00002F03AF930B9684601F0FEFF20B101987B
:1091E00002F044F903B0F0BD009A64F06F045368D4
:1091F0005674147457611D70009B0121586815F056
:109200005FFC009B019AD881536014F0AFF80446CC
:10921000019904484A6815F0CDFC204614F0ACF8DA
:10922000E0E700BFB8390020022808B508D10429BA
:1092300005D10020FFF744FF012380F8C03008BDAE
:109240000328FCD10429FAD10022044B1B68002B0F
:10925000F5D0C3E92E221B68F9E700BFB039002022
:10926000F8B54B6804461B7C0D467F2B4FEA9316DE
:1092700098BF002614F07AF8074636B9637B5BB9CD
:1092800004F1B00029466A680BE0032E10D1A37BDD
:1092900073B90123A37301E0013B637329466A6834
:1092A000054815F087FC3846BDE8F84014F064B86E
:1092B00004F1B400E6E700BFB8390020F8B5054670
:1092C00014F054F805F1AC070646384613F01EFFBB
:1092D000044648B14268937C013BDBB2937443B1CE
:1092E0000146384615F06BFC3046BDE8F84014F0F6
:1092F00043B8304614F040F863689E6826B9186891
:1093000001F0D2FF63681E6014F030F82146064673
:109310006268054815F053FC2B7C01332B74EB7B02
:10932000013BEB73E0E700BFB839002013B50446FA
:1093300001A802F089F830B9684601F021FF20B198
:10934000019802F093F802B010BD009B5C61227A94
:109350005A74E27A62F07F021A74019A536014F030
:1093600005F80446019904484A6815F023FC204694
:1093700014F002F8E7E700BFB83900202DE9F34701
:10938000044613F0F3FF0746404D296801BBA04691
:109390000E4658F8AC5F4DBB04F1300003F048FABC
:1093A00025742546237B637355F8B01F002951D1DE
:1093B000254655F8B43F002B53D11D46344E316835
:1093C000002956D1384602B0BDE8F04713F0D4BFAB
:1093D000D1E900635B69A34206D12A46204615F015
:1093E00052F9637B013363733146CFE7D5E90092CD
:1093F000937C2946013B9374404613F08FFE6968C5
:109400008B7CABB9D4F884A0BAF1000F04D0CA6940
:1094100033234968207AD0476868466002F0ACF888
:10942000284602F003F8E37B4D46013BE373B2E7C5
:1094300001A802F047F8227A019B1A70D4F8842020
:109440005A60D4F890209A606A68D169D9605661F0
:10945000D361E5E70E682A46204615F014F9314637
:10946000A4E71E6819462A46204615F00CF9334633
:10947000A1E7D1E900835B69A34205D132462046CA
:1094800015F001F984F8C150414699E7B839002038
:10949000B439002073B5054613F068FFAB68064683
:1094A000012B03D913F068FF042412E000232C6879
:1094B000AB608CB92879FFF703FE044630B190F811
:1094C0007030013B012B94BF00241F24304613F061
:1094D00053FF204602B070BD13F04EFF2B79EBB95D
:1094E00004F1A406D4F8A430FBB904F1A806D4F81A
:1094F000A83003BB94F870302BB1033B022B32D859
:109500002046FFF73BFF2B79DBB90123204684F887
:109510007030FFF7E7FD00242C60DAE7207A02F0D4
:10952000A9FE0028DCD03046BCE7304613F0EEFD43
:1095300001F038FFD6E7304613F0E8FD01F032FFC6
:10954000D5E702234FF47A7084F8703003F0CEF937
:1095500000230146CDE90033044A234604F15000BC
:1095600015F004FCD7E70124B3E700BF5FE6010074
:1095700018B9024A1378013313707047BA6B002090
:109580002DE9F341036804461B797F2B4FEA9316BC
:1095900098BF002613F0EAFE656907461DB3002E4A
:1095A0003FD0032E30D10023D5F89060AB731EB1AD
:1095B000E2696168287AB04700232046636001F0C1
:1095C000DBFFD5F8B430002B51D005F1B40013F017
:1095D0009DFD014618B14268937C013B9374284677
:1095E000FFF73EFE13E00EB1032E0DD1E569A6B9DB
:1095F0006E6826B13323EA6861682878B047002393
:109600002846636001F070FF204601F0B5FF384640
:1096100002B0BDE8F04113F0AFBE032EEFD1AE684B
:10962000E7E794F82080B8F1000F0DD0D5F88480DA
:10963000B8F1000F04D03346E2696168287AC04768
:10964000002384F82030DFE7204601F095FF04284E
:10965000DDD1D5F8AC30002BD9D0CDE90088234638
:10966000074A696905F1300015F080FBCFE795F8EE
:109670007030012BCBD12846FFF734FDC7E700BF80
:1096800069E80100024A137801331370704700BF84
:10969000BA6B00202DE9F04F2DED028BAD4B91B050
:1096A0001B7808930693069B83BB13F05FFEA94AC1
:1096B00008991378DFF8ACB25B1A137013F05CFEF4
:1096C00002F06CFD02F0E0FADFF89CA2DBF800305B
:1096D00013B9DAF800306BB101F030FC064648B13E
:1096E000DAF80030002B40F0F082DBF80030002B7D
:1096F00040F01E83984E3368002B40F0E48311B095
:10970000BDEC028BBDE8F04F00F06EBC0BA90CA8BD
:1097100001F0AEFB8346002840F008828F4B5B7857
:1097200083B90C9B05211868B0F8052015F0EDF9F8
:1097300020B10C9B1B681B78142B03D00C9801F0F4
:109740001BFFF3E10C9A136893F804A05D785B8823
:10975000BAF17F0F07930799BDF82C304FEA9A169C
:1097600098BF00268B4228BF0B4628469381FFF7FF
:10977000A7FC0446002800F09F82F0070AD40C9B47
:109780001B7E3BB913F0F2FDD4F8AC2081468AB9B8
:1097900013F0F2FD0C9F3B7E002B00F01881204659
:1097A0002946E27AFFF70EFD00230C98037601F0BC
:1097B000E3FEA5E15268E17B12680AF00703127923
:1097C000C2F30212571C114407F0070701F007010A
:1097D0008F4205D8BB4201D38B4205D94846D7E713
:1097E0008B4201D9BB42D3D30027934298BF0833A1
:1097F0009B1ADBB22774099303F05EF8D4E90632B2
:10980000C01A61EB0201564A1378002B62D0C4E9FA
:109810000801400840EAC1704908C4E90A0117700C
:109820000520D4E90A8703F061F8804577F1000349
:1098300005D2052003F05AF80023A062E362D4E9C0
:109840000A074FEA8008BF0047EA9077D4E9080387
:1098500018EB000841F2883047EB030703F046F8A5
:1098600000234045BB416BD241F2883003F03EF803
:109870008046C4F8148004F1300002F0D9FF04F1EE
:10988000AC0308EE103A099A5FFA8BF393426DD35A
:10989000484613F071FD04F1B007D4F8B030002B46
:1098A0003FF478AF637B002B3FF474AF13F05EFDA1
:1098B0008146384613F02AFC804618B14268937CF2
:1098C000013B9374484613F057FD41462046FFF78D
:1098D000C7FCE2E7D4E90A27920842EA877212EB52
:1098E000020C4FEA970747EB07081CEB020C47EB0B
:1098F0000807D4E9083E1A1A6EEB0108B8F1000F08
:1099000002DA524268EB4808920842EA88721CEB7D
:10991000020247EBA807C4E90A270727DB0843EA46
:109920004E73A3FB07234FEADE0E07FB0E3EC00873
:1099300040EA417010184EEBD101C4E908016FE70D
:10994000052002F0D3FF804577F1000391D2052076
:109950008CE700BFBA6B00209C390020BB6B002055
:10996000170C0020B8390020B439002018EE100A76
:1099700013F0CCFB059018B14268937C013B9374C3
:10998000059BD3F8048098F81230DBB9D4F8842012
:1099900017462AB1D8F81C20D8F80410207AB84706
:1099A00000234046C8F8043001F0E6FD059801F0B8
:1099B0003DFD637B0BF1010B01336373E37B013BE3
:1099C000E37360E74FF0010388F82030EEE74FEAD9
:1099D0001A18002E40F0C080CDE90D660F9694F85D
:1099E0007030022B06D10523324629462046FFF768
:1099F000E9FBADE03B68B3F80290A9F102091FFA58
:109A000089F9ADF82E90B9F1000F0DD07E68494666
:109A1000304615F0B2F849460246304615F075F862
:109A200010B90123E27AE0E7637AE27AD90701D537
:109A30000623DAE708F0070890457FD11AF0080FEF
:109A400009D1394620460DF12E0214F067FE002898
:109A500041D00423E6E7237A13B106234246C4E744
:109A6000394620460DF12E0214F058FE014600281A
:109A7000EFD1A56F55B10FAB207A02930DAB0193D7
:109A80000EAB00937A68BDF82E30A847786801F0D5
:109A9000FDFB002338467B6001F06EFDD4F8883072
:109AA0001BB1D4F88C10207A9847E37A2046013312
:109AB00003F00703E372FFF739FC0E99002939D050
:109AC0000D9A002A36D00F9B92B2009310232046A5
:109AD00014F063FE14E03846BDF82E2004F1A40112
