S01800007263702D756172742D3830323135345F322E733337BC
S214004000C00A00206D4600007B6D01007B6D01003C
S214004010377A01007B6D01007B6D01007B6D01002E
S2140040207B6D01007B6D01007B6D01007B6D0100E7
S2140040307B6D010044DB01007B6D01007B6D0100A0
S2140040407B6D01007B6D01007B6D01003D4B000028
S2140040507B6D01007B6D0100115100007B6D01003E
S2140040607B6D01007B6D0100719500007B6D01008A
S214004070A18100007B6D01007B6D01007B6D01005E
S2140040807B6D01007B6D01007B6D01007B6D010087
S2140040907B6D0100C54E00007B6D01007B6D01004D
S2140040A07B6D01003D5000001D5000007B6D01003F
S2140040B07B6D010055D501007B6D0100F1560100B6
S2140040C05BD5010057D50100B14E010067D5010050
S2140040D05FD50100B556010063D50100C936010061
S2140040E0315701007B6D01007B6D01007B6D010087
S2140040F07B6D01007B6D01007B6D01007B6D010017
S2140041007B6D01007B6D01007B6D01007B6D010006
S2140041107B6D01007B6D01007B6D01007B6D0100F6
S2140041207B6D01007B6D01007B6D01007B6D0100E6
S2140041307B6D010000000000F8B5894B1C8814F068
S214004140010440F00881874E874B884FC6E900344B
S21400415041F60B2340227F218548B4603C60BB803B
S21400416019F04EFA4FF07F32824B214630461A60E5
S2140041700AF0ACFC044630B940F212417E4B7F4A4E
S2140041807F4811F0D3FC4FF0011118F02CFD20B140
S21400419040F21A417B4B794AF2E70221204618F09A
S2140041A0CCFB20B140F21D41764B744AE8E720462E
S2140041B075490BF023FA20B14FF48461714B6F4AB6
S2140041C0DEE70121204618F04BFE20B140F22541E3
S2140041D06C4B6A4AD4E70121204618F051FE05468A
S2140041E020B14FF48561674B644AC9E70146E02277
S2140041F0664819F005FA80232A46204606F1100183
S21400420018F041FD802804D040F22F41604B5B4AF5
S214004210B6E7604E01200AF0ADFC4FA3D3E90023B9
S2140042204FF0FF304FF0FF31346005F05FFE294657
S214004230384605F07DFD0121084605F0EDFD01211B
S214004240306818F018FB044620B140F2C1414D4BCF
S214004250514A95E701464FF40872504819F0D0F9D4
S2140042604F4A504B02F188011A60996202F5887134
S21400427002F5CC729C809A679C854B4AA3F8544002
S2140042801965A3F87C40494B6FF063001A609C8068
S214004290474A484B1A60484A9C801470474A5A61FD
S2140042A007F0ECFB0B2005F02DFC454B186020B901
S2140042B040F2D941434B384A62E701F0B3FF002091
S2140042C005F044FE08223068114618F076FB20B14F
S2140042D040F2DE413C4B304A52E712F062FF0446A1
S2140042E012F07AFF08B144F40034204612F05BFF67
S2140042F005F0A6FD12F068FF00280CBF0822002279
S2140043000821306818F059FB20B14FF450612F4B4C
S2140043102F4A35E72F4B1B78ABB90022002341F21A
S2140043200D012D4805F0E2FD002007F0C5F800233A
S2140043302A4A2B4813702B4A13702B4A1370BDE879
S214004340F84014F0B5BA12F03FFF0028E5D041F26D
S2140043500D03214AE3E7F8BD0BE020FF2202000030
S214004360D4660020FC5F002089A10000DC5F0020EE
S2140043703668002014680020BDE2010032E5010026
S214004380CEDF0100B1DD010050E60100986000209C
S214004390CCE20100D85F0020CDE501007861002066
S2140043A08061002050160020776800202816002024
S2140043B0FF680020F0160020F6680020181700207E
S2140043C09460002004E301001FE30100A3E3010062
S2140043D0DAE401000C0C0020C00D03001A6800206F
S2140043E049E40100FE680020FD68002010B5054C79
S2140043F0237833B9044B13B1044800E000BF01230F
S214004400237010BDA82D0020000000004C150200EF
S21400441008B5034B1BB10349034800E000BF08BDC5
S21400442000000000AC2D00204C150200A3F5803AD9
S214004430704700BF174B002B08BF134B9D46FFF776
S214004440F5FF00218B460F461348144A121A19F03E
S214004450D7F80E4B002B00D098470D4B002B00D002
S21400446098470020002104000D000D48002802D0C7
S2140044700C4800E000BF11F0A3FB2000290012F05A
S21400448030FC11F077FB00BF0000080000000000C1
S21400449000000000C00A0020A81300209C6B00202B
S2140044A0000000000000000008B514F0B3F9054B4A
S2140044B0186028B93F21044B044A054811F036FB22
S2140044C008BD00BFC42D0020E8DA0100FBDA0100B9
S2140044D0F2DA0100014B186807F0BEB9C42D0020BF
S2140044E010B5044C206814F0E9F92068BDE81040C7
S2140044F007F086B9C42D002010B51E4C12F0B0FD92
S214004500236F23F0070343F00203236712F0AFFD87
S214004510D4F82031002023F0070343F00103C4F849
S2140045202031D4F8403123F0030343F00103C4F8EC
S2140045304031D4F8603123F0030343F00103C4F89C
S2140045406031D4F8403223F0030343F00103C4F88B
S2140045504032D4F8003223F0070343F00103C4F8D6
S2140045600032D4F8083223F0070343F00103C4F8FE
S214004570083210BD0080005007B501A801F04AFCC3
S2140045809DF80530012B27D11F4A936DDB0313D40A
S214004590536B23F4FF0323F4FE4343F4BC1343F4AA
S2140045A0A0635363136B23F4704343F440431363D5
S2140045B0136B43F4E06313639DF8043063B94FF064
S2140045C000531B68114B1B68114B1B68114B1B6873
S2140045D0114B1B68114B1B68114AD2F8803043F010
S2140045E00303C2F8803004F0D3FB04F08FFB04F022
S2140045F095FBFFF781FF04F077FB00F067FA03B046
S2140046005DF804EB00F02ABD00C00050004000201A
S2140046100080002000C00020000001200040012093
S21400462000800050014B1878704700BFEA670020F2
S21400463038B5054612F0B3FD044630B928460BF0EF
S21400464013F82346024A137038BD02231846F9E7CA
S214004650EA670020014812F01DBC00BF14DB010011
S214004660014812F08BBC00BF2CDB010008B500F03F
S2140046702DF8124B12498B4212D30020114B1249CF
S2140046808B4218D3FFF7D6FE186850F822405868B9
S21400469040F82240013298688242F5D30C33EAE7AC
S2140046A00022F8E71C6844F8220001325C68A24247
S2140046B0F8D30833E4E70022F8E700BF54150200F9
S2140046C06015020060150200601502006FF0010020
S2140046D0104B114A10B59A60D3F888200F4942F45F
S2140046E07002C3F8882001F50052106641F2FF7090
S2140046F050660220C3F8D000BFF34F8FBFF36F8F12
S21400470008244FF440330648C0F88041D360046064
S2140047100B6110BD00ED00E000400000008000448A
S21400472000E100E0014B1868704700BFC40A002093
S214004730014B1860704700BFC40A0020084B1B6F6F
S21400474003F00703022B04D0032B05D0012B05D062
S214004750FEE7044B18687047034BFBE703487047B7
S21400476000800050C40A0020C80A0020002D310135
S21400477008B5FFF7E3FF054B1B6FC3F301330133A7
S214004780B0FBF3F0024B186008BD00BF008000507D
S214004790C00A00200048704700B4C404014B1868E3
S2140047A0704700BFC80A0020054B1860054B1B6FFA
S2140047B003F00703032B01D1FFF7DABF704700BFF2
S2140047C0C80A00200080005000487047002D3101C4
S2140047D0174B9868C0F304400C2822D8DFE800F096
S2140047E0092121212121071719211B1D1F0011480E
S2140047F070479B6803F04073B3F1807F13D0B3F12A
S214004800007F12D00C4A002B08BF104670470B489A
S21400481070470B4870470B4870470B4870470B486B
S2140048207047002070470A4870470A48704700BF24
S2140048300040015A405DC60000093D000024F40017
S214004840C0EA210180BA8C010048E801005A6202E1
S21400485080841E0040420F00014B1868704700BF5E
S214004860CC0A0020BFF34F8F0549064BCA6802F4F6
S214004870E0621343CB60BFF34F8F00BFFDE700BF7E
S21400488000ED00E00400FA0500239B6AB3F5804FB4
S21400489003D21968064A914203D00023037083604E
S2140048A07047012202709A689B694260F7E700BF72
S2140048B007B0CD5E73B5494B04461A781AB102228A
S2140048C01A7002B070BDCDE900220028F9D001268A
S2140048D01E7012F0DDFB424D424B18600DF044FC9A
S2140048E02B785BB900F0BAFB40B93F4808233F4A33
S2140048F03F49006809F0EEFE00B92E703D4B5A683D
S214004900E2603D4A9A601A6E22605A6E6260D3F880
S2140049107021A2601B6E5C0440D5384AD368D80765
S214004920FCD4374B1A68531C3DD04FF48013934089
S214004930344A13660423334C23664FF4806323669D
S21400494012F03FFA01300ED012F03BFA40F201139B
S214004950984208D04FF4804323664FF40043236602
S2140049601023C4F870311023264C4FF08042236683
S2140049704FF400536846236601A92266636612F068
S21400498005FA009B2366019B63662B78002B98D064
S214004990164B1A6822665B68636692E71A4AD36803
S2140049A0D907FCD4BDE7194B1B78002BC2D1184B96
S2140049B05A68144B12B94FF480121A66154A526898
S2140049C012B94FF400121A66134B5B68002BB1D174
S2140049D04FF480020B4B1A66ACE700BFED67002071
S2140049E0EB670020E02D0020D80A0020D82D0020FC
S2140049F0007108000080004455CEAC000000044062
S214004A00D00A00200090004400000450EC6700200C
S214004A100080055000C005500000065038B5224DF5
S214004A2004462B78012B02D001232B7038BD0028BA
S214004A30FCD012F0C6F9013009D012F0C2F940F2EB
S214004A400113984203D0194AD368DB07FCD42268C6
S214004A50174B1A6662685A66A268C3F87021E26845
S214004A60D40744BF00229A60124B1A68013213D151
S214004A70114A127882B911494968C80748BF1A60B6
S214004A800F4A5268D10744BF01221A600D4A526885
S214004A90D20744BF02221A600DF06EFB0A4B18685C
S214004AA012F0FCFA0023C0E7ED6700200000044087
S214004AB000800044D00A0020EC67002000800550EB
S214004AC000C0055000000650E02D002070B5002400
S214004AD0A36AB3F5804F22D21A68124B9A421ED1AF
S214004AE0114E337813F0FD0517D11048FFF7E2FE9C
S214004AF008214FF480330E4A0E48C2F88011C36076
S214004B0011600D4A1361AB6ADB6998470446074893
S214004B10FFF784FF0CB901233370204670BD4FF4B5
S214004B208174FAE707B0CD5EEC670020C82D002040
S214004B3000E100E000A000440090004413B51F4BC5
S214004B401B7803B9FEE700231D4CCDE900336A4607
S214004B5008231C49206809F0BDFDF0B91A4AD2F8AE
S214004B604031D2F840211F2B4FF0010310D9203AD4
S214004B709340019A1343019308236A46114920681B
S214004B8009F05EFD4FF00053104A1A60FFF76AFE08
S214004B909340009A13430093EEE70D4B9842F1D1F1
S214004BA0094AD2F84031D2F840211F2B4FF00103BA
S214004BB002D9203A9340DEE79340ECE7ED67002009
S214004BC0D80A002000710800008000440B020FF095
S214004BD00BE000F005490A681318054883428CBFAD
S214004BE04FF0FF320B601046704700BFD40A00201B
S214004BF00000012037B504680023012261790546CC
S214004C00207900F037FF14223023217913FB01238B
S214004C1003F1A04303F570331B686279D340DB438E
S214004C2003F001032370A379022B0ED100F0A0F944
S214004C302A460749607900F0C5F9012302466179E2
S214004C402079CDE9003300F0D1FE002003B030BD5E
S214004C50A16E010010B501224378017884783020D7
S214004C609A40054B00FB01331CB942F210015A5022
S214004C7010BD41F21001FAE700C0035010B5012242
S214004C8043780178847830209A40054B00FB013346
S214004C901CB941F210015A5010BD42F21001FAE759
S214004CA000C0035038B5124B05461B78DBB1E0B1A7
S214004CB012F0EEF90F4A00231146147B54B92B600C
S214004CC001251A0101EB03131D738C5012F0E6F94F
S214004CD0204638BD0133082B02F11002EDD112F048
S214004CE0DDF90548F5E70548F3E70548F1E700BFB5
S214004CF0EE670020E42D0020048000F0028000F023
S214004D00018000F00D4B10B51B78044693B10728C0
S214004D1012D812F0BDF90A4B03EB04131A7B2AB122
S214004D2000241C7312F0BAF9204610BD12F0B6F932
S214004D300448FAE70448F8E70448F6E7EE67002078
S214004D40E42D0020068000F0028000F0018000F0D4
S214004D50154B13B51868002301908DF8043012F037
S214004D6097F9124B1C7824B112F098F9104802B04B
S214004D7010BD01221A7012F091F90E4B01A81C7397
S214004D801C7783F82C4083F83C4083F84C4083F82B
S214004D905C4083F86C4083F87C4008238DF807302D
S214004DA000F0B8FE2046E2E794DB0100EE67002044
S214004DB0038000F0E42D0020F8B50D4D2D7885B168
S214004DC0072810DC0B4D060105EB0014277B67B1A6
S214004DD0AB510025069BA560636000F0C5FE284623
S214004DE0F8BD0548FCE70548FAE70548F8E700BFC0
S214004DF0EE670020E42D0020028000F0018000F025
S214004E00078000F00A4A08B512785AB107280BD86E
S214004E10084A02EB00131B7B43B1002100F06CFE36
S214004E20002008BD0448FCE70448FAE70448F8E711
S214004E30EE670020E42D0020028000F0018000F0E4
S214004E40078000F00A4A08B512785AB107280BD82E
S214004E50084A02EB00131B7B43B1012100F04CFE15
S214004E60002008BD0448FCE70448FAE70448F8E7D1
S214004E70EE670020E42D0020028000F0018000F0A4
S214004E80078000F00A4A08B5127852B107280AD8F7
S214004E90084A02EB00131B7B3BB100F0B3FE002078
S214004EA008BD0548FCE70548FAE70548F8E700BFEF
S214004EB0EE670020E42D0020028000F0018000F064
S214004EC0078000F02DE9F843174B1F6D5B6D1F4000
S214004ED000D5FEE701260025144CDFF85480DFF8E5
S214004EE05490374217D02368C8F850609BB1A16829
S214004EF0284601316268A1609847637B012B0AD17E
S214004F0048B909EB45131A7B60F341021A731A7FFE
S214004F1060F341021A770135082D4FEA460604F180
S214004F201004DED1BDE8F88300000450E42D002014
S214004F3000200450642E002070B5044601250B4E58
S214004F4004B970BD94FAA4F0B0FA80F005FA00F344
S214004F5006EB001224EA03045368002BF0D0117B02
S214004F6011B191689847EBE79847E9E7642F00206E
S214004F7008B5192000F022FD28B14FF00072074B4B
S214004F80C3F880211A601A2000F018FD28B14FF0EF
S214004F908062024BC3F880211A6008BD00E100E081
S214004FA038B505460C4612F073F80022044B03EBA6
S214004FB005135C601A73BDE8384012F06FB800BF86
S214004FC0642F0020F8B505460F46164612F060F826
S214004FD0104B05F0FC02D3F824140023EC1804F060
S214004FE00304144321FA04FC1CF0010F07D001331C
S214004FF0042BF3D1FF2412F051F82046F8BDFF2C05
S214005000F9D00122044B03EB0413C3E901761A73AB
S214005010F1E700BF00C00350642F0020064BD3F812
S2140050202404D3F8202403F50053104000F0553034
S214005030C3F82004FFF780BF00C00350064BD3F828
S2140050402404D3F8202403F50053104000F0AA30BF
S214005050C3F82004FFF770BF00C00350024B196866
S214005060024B186809F016BADC0A0020D80A00209D
S21400507037B5920004460D46019218F025FD431CF4
S2140050800BD060B929462046019A18F082FA00280B
S214005090044808BF002003B030BD0348FBE70348C0
S2140050A0F9E700BF10E000F021E000F024E000F097
S2140050B010B5044618F010FD431C10D088B900F057
S2140050C0BDFE234620F003002044984201D1002074
S2140050D010BD53F8042B0132F7D00348F8E7034815
S2140050E0F6E70348F4E700BF0EE000F021E000F02A
S2140050F024E000F008B511F0C4FF014B186008BDAD
S214005100A4370020014B186811F0BFBFA437002059
S214005110054B5B69DB0605D51022044B5A6101225C
S214005120034B1A70704700BF0080045000A0045064
S214005130EF67002041F6713310B5104C104AA042BC
S2140051408CBF4FF480140024D169D363936801F4B4
S214005150803123F44013234393600A4B98420A4B52
S214005160D3F818228CBF42F0020222F00202C3F8E3
S214005170182211B10022024BDA6310BD005A6202F7
S2140051800000035080F0FA0200C007502E4B9842F1
S2140051904AD022D82D4B984240D014D82C4B984257
S2140051A039D00AD82B4B984232D02B4B98422FD06E
S2140051B02A4B98422CD000207047294B9842FAD1AF
S2140051C0284B186F7047284B98422AD0274B984296
S2140051D0F1D1244BD3F880007047254B98422BD052
S2140051E009D8244B984223D0234B9842E3D11D4B39
S2140051F0D3F88C007047214B984221D003F57403F6
S21400520003F510539842D6D1164BD3F89800704742
S214005210144B986D7047134B586E7047114B586F70
S2140052207047104B986F70470E4BD3F8840070474A
S2140052300C4BD3F8880070470A4BD3F890007047A1
S214005240084BD3F8940070470048E8010024F400A7
S214005250C0CF6A0080841E0000093D0040420F0057
S214005260405DC6000080E00FC0EA210180BA8C01D4
S214005270007E560380D54302006CDC020090D0030B
S21400528038B5134B0546D3F820010C4600F007004E
S214005290042804D8DFE800F01A0A0E1216000023CD
S2140052A0184605B1286004B1236038BDFFF73AFA06
S2140052B00423F6E7FFF772FA0323F2E7FFF788FA0C
S2140052C00523EEE7FFF780FA0223EAE70123E8E783
S2140052D00080005037B50C460021124A0191D2F8E2
S2140052E08021054602F00302022A0ED0032A11D0BE
S2140052F0012A14D101A8FFF7C3FF0D230DB1019AAF
S2140053002A6004B1236003B030BDFFF761FA0523BD
S2140053100190F3E7FFF758FA02230190EEE70B46F9
S214005320ECE700BF0080005038B5104B0546D3F8B8
S21400533040310C4603F00303022B0BD0032B0DD099
S214005340012B0FD111F01CFD082305B1286004B114
S214005350236038BDFFF780FA0723F6E711F013FD48
S2140053600923F2E701230020EFE700BF008000508A
S21400537038B5104B0546D3F860310C4603F00303EE
S214005380022B0BD0032B0DD0012B0FD111F0F8FC04
S214005390082305B1286004B1236038BDFFF75CFA26
S2140053A00723F6E711F0EFFC0923F2E701230020BC
S2140053B0EFE700BF0080005038B5144B0546D3F821
S2140053C000020C4600F00700042804D8DFE800F0CE
S2140053D01B0A0E1216000023184605B1286004B1F9
S2140053E0236038BD11F0CCFC0823F6E7FFF734FA4B
S2140053F00723F2E711F0C7FC0923EEE7FFF7B8F939
S2140054000C23800AE9E70123E7E700BF008000508D
S21400541038B5144B0546D3F808020C4600F00700D2
S214005420042804D8DFE800F01B0A0E12160000233A
S214005430184605B1286004B1236038BD11F0A0FC01
S2140054400823F6E7FFF708FA0723F2E711F09BFCBC
S2140054500923EEE7FFF78CF90C23800AE9E701231E
S214005460E7E700BF0080005038B5104B0546D3F87C
S21400547040320C4603F00303022B0BD0032B0DD057
S214005480012B0FD111F07CFC082305B1286004B174
S214005490236038BDFFF7E0F90723F6E711F073FC49
S2140054A00923F2E700231846EFE700BF008000500C
S2140054B038B5104B0546D3F800310C4603F003030D
S2140054C0022B0BD0032B0DD0012B0FD1FFF766F963
S2140054D0032305B1286004B1236038BDFFF7BCF98B
S2140054E00723F6E711F04AFC0623F2E70123002023
S2140054F0EFE700BF00800050032814D005D801282D
S21400550005D0022809D0002005E00F28FBD1084B63
S214005510186FC0F3013001307047054BD3F8900088
S214005520C0F30460F7E7024B186FC0F38020F2E781
S214005530008000501FB500230193252817D8DFE808
S21400554000F0131A1D262B353A50555A5F646977BA
S214005550161A3F1616551A262B26351A5026773A4F
S2140055603A3A3A2626265A5FFFF7E8F8019001985D
S21400557005B05DF804FBFFF7FBF8F7E7FFF7DEF88A
S21400558002460220FFF7B8FFB2FBF0F0EEE7FFF7A7
S214005590EFF802460320F5E7FFF7EAF80246032095
S2140055A0FFF7AAFFB2FBF0F04008DFE7002101A8F2
S2140055B0FFF790FEDBE7002101A8FFF761FED6E7C4
S2140055C002934FF0E0231B695B0705D5FFF7D0F881
S2140055D00290029B0193CAE703A902A8FFF7A4FE64
S2140055E0F7E7002101A8FFF79FFEC0E7002101A80A
S2140055F0FFF7BEFEBBE7002101A8FFF7DDFEB6E71A
S214005600002101A8FFF704FFB1E7002101A8FFF77A
S2140056104FFFACE7094BD3F8803003F00303022BAF
S214005620A9D0032B01D00020A0E7FFF7D1F89DE713
S214005630002101A8FFF718FF99E700BF008000507F
S21400564008B50120FFF776FFBDE808400349884209
S2140056508CBF02210121032000F002B880F0FA027C
S214005660032810B50C4627D004D8012804D00228F9
S21400567017D010BD0F28FCD111F0E6FC11F0ECFCA1
S214005680124B013C196F21F4405141EA04341C6767
S214005690FFF76EF80021FFF74DFDBDE81040FFF75D
S2140056A0CFBF0A4B013CD3F8901021F0F85141EAE5
S2140056B00464C3F89040DCE7044B013C196F21F406
S2140056C0806141EA84241C67D3E700BF0080005055
S2140056D01FB500230193252821D8DFE800F013200A
S2140056E02020202A2F454A4F54595E71202034200E
S2140056F0204A202020202A204520712F2F2F2F20BF
S21400570020204F54314B1B6F03F00703013B032B44
S21400571005D8DFE803F00C02080A04230193019879
S21400572005B05DF804FB0323F8E70623F6E702233B
S214005730F4E7002001A9FFF7CDFDF0E7002001A95E
S214005740FFF79EFDEBE702934FF0E0231B695B0734
S21400575005D5FFF70DF80B230393039BDEE703A99C
S21400576002A8FFF7E1FDF8E7002001A9FFF7DCFD3E
S214005770D5E7002001A9FFF7FBFDD0E7002001A92F
S214005780FFF71AFECBE7002001A9FFF741FEC6E7A8
S214005790002001A9FFF78CFEC1E70C4BD3F8803040
S2140057A003F00303022B03D0032B05D00023B5E739
S2140057B0FEF7DEFF0B23B1E7FFF70AF80523ADE798
S2140057C0002001A9FFF750FEA9E700BF00800050A7
S2140057D038B50546FFF7DAFC214B04465A68012A1D
S2140057E004D120494A609A699207FCD10020FFF74D
S2140057F06FFF042803D111F027FC11F02DFC1A4A84
S21400580024F04073954221D0184A954221D0184A78
S214005810D16811F0060FFBD190689360916803F48D
S214005820F81301F4F8118B4216D12846FEF780FFD4
S2140058300020FFF74DFF042810D1FEF799FF002146
S214005840FFF778FCBDE83840FFF7FABE43F0007378
S214005850DDE743F08073DAE79060E9E738BD00BF24
S21400586000C0015000E0015040420F0080841E003E
S2140058700000015070B504460020FFF729FF0328FA
S2140058807CD045F60E030221414AC2F88030414BD7
S2140058909962012103F580539962936DD903FCD474
S2140058A0D4E900131B0543EA0163E17B94F8225018
S2140058B00B43217B94F8236043EA0143617B43EA70
S2140058C00133A17B43EA811313619169D4E9040390
S2140058D01B0643EA806301F000410B43A17EE07E95
S2140058E00B43217E43EA0143617E43EA0123936131
S2140058F0136AE26923F00D03002A0CBF0021082179
S21400590043EA020343EA8003214A43EA010313629F
S21400591094F820304FEA431331D1906A94F821105E
S21400592020F0330043EA0113034343F0010393627C
S214005930194B916D33EA0101FBD10221154B996297
S214005940936D5B00FCD41069A36820F4700040EAF5
S214005950035010614FF000420E4B9A611DB90222AF
S21400596003F580539A6216B901220C4B9A6294F89A
S21400597024301BB1064B0A4AC3F8802070BD916ADA
S21400598021F0330131430B4343EA45039362EEE7CC
S21400599000C0005000D000500300014000E000505E
S2140059A0F1A7FFFF014B93F900007047F067002056
S2140059B0014B1880704700BFF80B0020054B4209CA
S2140059C053F8223000F01F0023FA00F0C04300F026
S2140059D00100704700E100E0034A0179D36E23F02E
S2140059E030030B43D366704700400050072AF7B5D4
S2140059F00D4614461F460FD803219600B14000FA04
S214005A0006F21548019111F04CFB05F003020199CE
S214005A101248B24011F045FB114B12499DF8200088
S214005A20002F08BF1946012303FA04F40C600E4B3E
S214005A300E49002808BF0B461C600D4B9DF824003D
S214005A40C3F820441031A3F6DC33002808BF0B4609
S214005A501C6003B0F0BD00BF00C4035008C4035070
S214005A6010E4035010D4035014D4035014E403502D
S214005A7000E00350F8B504460D461F4616464AB1E8
S214005A8001238B403021194A01FB0022FFB141F26D
S214005A901001535004EB4403072D4FF00F014FEA5B
S214005AA0031317D8A80006FA00F2814010481844DD
S214005AB011F0F7FA56B9012130230C4801FA05F522
S214005AC003FB040077B141F21003C550F8BD42F263
S214005AD01001DEE7A5F10800800006FA00F281401A
S214005AE00448E4E742F21003EFE700BF00C00350AB
S214005AF004C003500CC00350044A054B002918BFCD
S214005B001346012202FA00F0186070474020045045
S214005B104010045030B5047845788178C27801206A
S214005B200F4B41EA0541240658609C609961FF21AD
S214005B3099620021996319644FF0004159654FF04E
S214005B40FF314FF4001003F50053196505491301A2
S214005B50DBB2C1F8800181F81533086030BD00BFA4
S214005B600000045000E100E02DE9F04101250C465C
S214005B70C3B2DFF888E0D1F800809D408F7ACB7AF8
S214005B8094F80DC0097BCEF850500EF5005E4EF826
S214005B9020804FF0300E184E1B050EFB006043EAC7
S214005BA0074343EA415322F00302C0F860C0C365CE
S214005BB0026711F06DFA736D2B437365237A13B188
S214005BC0336C2B433364637A13B1B36B2B43B363E9
S214005BD02279A37943EA0243084A93616179E3791B
S214005BE043EA014306498B61034B55639D64BDE858
S214005BF0F04111F053BA00BF0000045000200450DA
S214005C000010045010B50124C0B2844011F040FAD0
S214005C10044B5A6D22EA04025A659C62BDE81040A5
S214005C2011F03CBA0000045010B50124C0B2844004
S214005C3011F02EFA074BDA6A224209D15B6B34EA7E
S214005C4003030CBF0124002411F028FA204610BDDF
S214005C500024F9E70000045041F67132034BDA6382
S214005C60012203F50053DA60704700BF00000350BE
S214005C7041F671320121044BDA6303F50052D1601C
S214005C800022DA63704700BF000003500138252861
S214005C909ABF024B185C0020704700BFBCDB0100B7
S214005CA02338032803D804299CBF024B595C0846B6
S214005CB0704700BFE2DB0100021E30B54FF0000067
S214005CC00CBF0C25042547F60774084952B9831DF6
S214005CD051F82330234023B101308542F6D14FF0EE
S214005CE0FF3030BD00F11203F2E700BF0080035022
S214005CF038B5C2F30625044602F0070241B90C4B3C
S214005D0042EA052242F44022063443F8242038BDF5
S214005D1011462846FFF7C4FF01462846FFF7B6FFA0
S214005D20034B41EA0020123443F82400EFE700BF9B
S214005D3000800350014BD3F8940070470040005099
S214005D40CB784A7810B55B010C7843EA82030A796F
S214005D50234343EA02130C22424302F1B042136388
S214005D60012C02BF8A78024B43F8202010BD00BFEA
S214005D70D080035008B54FF0B0435A6802B960B1FE
S214005D805B680BB111F0B5F94FF0B04130B10120AE
S214005D90074B586011F0ADF9C86008BD11F0A9F9BD
S214005DA00223CB6011F0A5F90122024B5A60F4E7FA
S214005DB000100058002000584FF0B0435B6870B5E4
S214005DC00BB111F096F90121104B45785960837894
S214005DD00679002BC37814BF02240024002B14BFBE
S214005DE0042200224379DB0043EA06132B432343B5
S214005DF013434FF0B0429360054B59600378002B75
S214005E0014BF0B460223D36070BD00BF00200058AD
S214005E1000100058054B5B69C3F38512827003F0CF
S214005E203F021B0B42700370704700BF00C0075054
S214005E30014B986CD96C70470080E00F0120034B33
S214005E409B680A3303F01F03984070470080E00FFA
S214005E500D4B984208D1A3F50033C3F88411C36DE7
S214005E6043F08003C3657047084B984204D1A3F5FE
S214005E701033C3F89411F2E7054B984204BFA3F51C
S214005E802033C3F8A411EAE70080055000C005508F
S214005E900000065070B5054616461C4619B9032084
S214005EA0FFF748FB0146402C1BD003D8DCB1202C62
S214005EB01BD070BD602CFCD1042303FB06F25608F1
S214005EC006EB4113B3FBF2F3094A203B02EAC30395
S214005ED0AA6822F06002AA60AA681443AC60EB616C
S214005EE0E7E70623E9E71023E7E70823E5E700BF2F
S214005EF0F8FF7F00012200F5805310B55A6040F687
S214005F00AA6341F205024361002312498360C36518
S214005F10C26000F500520361C361C36491640E4918
S214005F208365884206D00D4CA04203D004F5804419
S214005F30A0420BD18842036506D0084B984203D096
S214005F4003F58043984201D1002343650123536043
S214005F5010BD00BFFFFF01000080055000C00550C7
S214005F6070B50D46FFF7C6FF012300F58056736037
S214005F70AB7C04461BB1836843F080438360EB7CB4
S214005F801BB12046297DFFF763FF2A8A6B7B2046DC
S214005F901343EA891343E3602B7BD5E90112FFF72D
S214005FA079FF6B7D1BB1A36843F48033A360AB7DA0
S214005FB01BB1A36843F40043A360EB7D2A7E1B0756
S214005FC0120502F4E00203F0E0431343A3656A7E81
S214005FD0931E012B214B20D89C421AD003F58043F8
S214005FE09C4218D003F580439C420CBF02234FF01E
S214005FF0FF3341F2AC5102205B0103F1A04303F5ED
S21400600070335850032A23D10423F3652B78636139
S21400601070BD0023EDE70123EBE79C4214D0104B44
S2140060209C4213D003F580439C420CBF02234FF0E2
S214006030FF3342F2AC5102205B0103F1A04303F5AB
S21400604070335850012ADEE70023F2E70123F0E719
S214006050042204F50053DA65D8E700BF0080055037
S21400606000C0055038B50446054D16F011FD0FCC9E
S2140060700FC594E80F0085E80F00002038BD00BF6C
S2140060805838002047F6FF739A42F0B566D00229CA
S21400609066D8344DCF0015F8313005EBC100012B22
S2140060A0847813D10025C3781B1B9D4202D3E018C9
S2140060B0C0B2F0BD591B4668A3EB510136F911601A
S2140060C09642D4BF0D4601F1FF33EEE74068002844
S2140060D0EFD0B0F90030934204DBB0F902309342BF
S2140060E0B8BF134682883D44FF2A19BFC8214FF027
S2140060F0280CB0F90610B0F908C0A1EB03020CBFDB
S2140061000126002692FBFCF26D78324412B29542CC
S21400611001DD002A01DA6A1E12B24FF47A7700EB2C
S214006120C206F188B668013213FB016112B221EA99
S214006130E1715C319542B1FBF7F104DD00EBC2067C
S214006140B6888E42EBD200EBC20232F8040C8842CC
S21400615028BF0846A04238BF2046A9E7FF20A8E788
S2140061600020A6E7583800200229F0B553D82B485F
S21400617000EBC10410F83110636801290FD1E078F4
S214006180A478904294BFC4EB0001C4EB0201001B4C
S214006190CAB28242C8BF002233F91200F0BD002BFB
S2140061A039D0A178914202D3B3F90200F6E7E1783C
S2140061B0B3F900009142F1D999886478A1F1FF06FD
S2140061C0013C714203F10405E4B2714103F10C078E
S2140061D01FFA82FCCEB2B44216D805EBC1014FF4CA
S2140061E07A756A43B1F902404968521A04EBD471D1
S2140061F002EB610292FBF4F29042CFDBB3F90200AD
S2140062009042CBDC10B2C9E737F831E04E1CE645C9
S214006210E3D33146DEE70248C0E700BF5838002027
S2140062200080FFFF08B50448FFF71CFFBDE80840E4
S214006230012016F050BC00BFE8DB010007B5FEF7F2
S21400624087FD084B984200D040B9002101A8FEF710
S21400625029FD18B99DF8040016F063FB03B05DF83D
S21400626004FB00BF038000F07FB51422002101A8C4
S21400627017F0C6F9044B01A94FF0FF30029316F051
S21400628016FD07B05DF804FB006A18002DE9FF470D
S21400629000230E4617460446009300285BD00AB13A
S2140062A0002958D037F0030807F0030A25D04FF02E
S2140062B000094FF0E063C4E9003901230196204647
S2140062C0029301A948F00053C4F80890C4F81C9043
S2140062D0039310F020FF4146204610F026FF20468C
S2140062E010F0D4FF054640B142464946304617F006
S2140062F087F9284604B0BDE8F0874FF00009BAF1E8
S214006300000F2AD04FF0E063C4E900390123CDF82E
S21400631004D00293124B204601A9C4F80890C4F892
S2140063201C90039310F0F7FE0421204610F0FDFEAB
S214006330204610F0ABFF054608B13A46D5E70346BF
S21400634000994644DA00013321FA02F29A4506F82B
S214006350012BF7D1CDE72125CBE75546C9E700BF8E
S214006360040000202DE9F04104681E4624F0400396
S214006370802B05468846174692B002D0B4F5807F3B
S21400638043D11C2200210BA817F03AF9224A234BCE
S2140063900121B8F1010F18BF13460A932B1D019374
S2140063A0E4081F4B44F0005402910AA80394049793
S2140063B0059106930796089101A9099310F0A1FE8E
S2140063C004A90AA810F09DFE07A90AA810F0A3FECB
S2140063D029680AA8C90810F0A8FE10210AA810F01B
S2140063E0A4FE10F04FFF98B90AA810F0A7FE4FF0D1
S2140063F098435A6CD202FCD55C6D10F045FF04F44D
S2140064007024204612B0BDE8F0816FF07100F9E705
S2140064104FF0FF30F6E700BF000101040001000462
S2140064201000002030B5154B87B00293144B039034
S214006430049346F611030D46059300F023F814283E
S214006440044616D1684610F0AEFF4FF0A84303226C
S21400645002A95A6319601D619A63DA6B9207FCD130
S214006460142C02D1684610F0ACFF00F03BF804464E
S21400647001E00028E9D0204607B030BD783800207B
S21400648004000020144A38B5D2F8803243F00103E5
S214006490C2F88032114B5B68C3F3080343B14FF078
S2140064A0A842D36B13F0430FFBD11424204638BD0B
S2140064B04FF0A843DC6B14F04304FBD1084D2B6867
S2140064C01BB90421284605F01FFA2B68013343F058
S2140064D000432B60EAE700BF0080005000ED00E0BC
S2140064E078380020014B00205B68704700ED00E024
S2140064F038B5054610F0CCFD054B1C6814B1237A60
S214006500AB4203D110F0CAFD204638BD2468F5E73B
S2140065109038002038B5054610F0BAFD0446291D0F
S214006520034810F07AFC2046BDE8384010F0B6BDAF
S2140065307C3800202DE9F743064608460F4691466C
S2140065409846FFF7D5FF019048B190F87030002BC1
S2140065500CBF2E240424204603B0BDE8F08301A817
S21400656002F0A0F804460028F5D1019D6881E87382
S21400657085F87000286085F8099064202F7285F8E9
S2140065800C8085F80D8002F03FFE68610198A4300B
S21400659010F040FC0198A83010F03CFC0198AC309C
S2140065A010F038FC0198B03010F034FC0198B4308C
S2140065B010F030FC0199064810F02FFC05490448FD
S2140065C010F048FC0123B360019B37713360C2E7CB
S2140065D09038002055740100F7B5074601A80E460E
S2140065E014461D4602F03EF830B9684601F0D6FE65
S2140065F020B1019802F048F803B0F0BD009A64F0AC
S2140066006F0453685673147317611D70009B012145
S214006610586811F020F9009B019A5881536010F0D9
S21400662037FD0446019904484A6811F076F9204679
S21400663010F034FDE0E700BF98380020F8B54B684E
S21400664004461B7B0D467F2B4FEA931698BF002609
S21400665010F01EFD074636B9637B5BB904F1B00047
S21400666029466A680BE0032E10D1A37B73B9012379
S214006670A37301E0013B637329466A68054811F07D
S2140066804CF93846BDE8F84010F008BD04F1B400F7
S214006690E6E700BF983800202DE9F041054610F0E7
S2140066A0F7FC05F1AC080746404610F0C1FB04466F
S2140066B048B14268967B013EF6B296732EB101460B
S2140066C0404611F02FF9384617E0384610F0E6FC41
S2140066D06368186801F0CAFE63681E6010F0D8FC94
S2140066E0064621460748626811F01CF930462B7CA6
S2140066F001332B74EB7B013BEB73BDE8F04110F0EC
S214006700CDBC00BF9838002013B5044601A801F0A0
S214006710A9FF30B9684601F015FE20B1019801F0D6
S214006720B3FF02B010BD009B1C61227A5A73E27A56
S21400673062F07F021A73019A536010F0A9FC0446B7
S214006740019904484A6811F0E8F8204610F0A6FCC3
S214006750E7E700BF983800202DE9F347044610F01D
S21400676097FC0746374D2968D9B9A0460E4658F813
S214006770AC5F25BB04F1300002F0E8FC257425462A
S214006780237B637355F8B01F00294CD1254655F876
S214006790B41F00294ED1384602B0BDE8F04710F0CD
S2140067A07DBCD1E900631B69A34206D12A46204678
S2140067B010F07EFE637B013363733146D4E7D5E980
S2140067C00092937B2946013B9373404610F038FBBA
S2140067D069688B7BABB9D4F884A0BAF1000F04D0FB
S2140067E08A6933234968207AD0476868466001F092
S2140067F085FE284601F028FFE37B4D46013BE37308
S214006800B7E701A801F06CFF227A019B1A70D4F852
S21400681084205A60D4F890209A606A689169D9609A
S21400682016619361E5E70E682A46204610F040FEA2
S2140068303146A9E70E682A46204610F039FE314652
S214006840A7E700BF9838002073B5054610F020FC77
S214006850AB680646012B03D910F020FC042412E096
S21400686000232C68AB608CB92879FFF741FE0446FC
S21400687030B190F87030013B012B94BF00241F24E8
S214006880304610F00BFC204602B070BD10F006FC3F
S2140068902B79EBB904F1A406D4F8A430FBB904F1C3
S2140068A0A806D4F8A83003BB94F870302BB1033B8D
S2140068B0022B32D82046FFF74FFF2B79DBB9012396
S2140068C0204684F87030FFF725FE00242C60DAE7B7
S2140068D0207A02F05DF90028DCD03046BCE730466E
S2140068E010F0A6FA01F06CFED6E7304610F0A0FADB
S2140068F001F066FED5E702234FF47A7084F8703014
S21400690002F082FC00230146CDE90033044A234608
S21400691004F1500011F093F8D7E70124B3E700BF65
S2140069208974010018B9024A13780133137070474E
S214006930F16700202DE9F341036804461B797F2B9D
S2140069404FEA931698BF002610F0A2FB256907466B
S2140069501DB3002E3FD0032E30D10023D5F8906013
S214006960AB731EB1A2696168287AB047002320463F
S214006970636001F0C3FDD5F8B430002B50D005F1AC
S214006980B40010F055FA014618B14268937B013BFB
S21400699093732846FFF752FE13E00EB1032E0DD177
S2140069A0A569A6B96E6826B13323EA6861682878B7
S2140069B0B04700232846636001F0A4FE204601F09D
S2140069C09DFD384602B0BDE8F04110F067BB032ECF
S2140069D0EFD1AE68E7E794F81C80B8F1000F0CD052
S2140069E0D5F88480B8F1000F04D03346A2696168F8
S2140069F0287AC04700232377E0E7204601F07EFD93
S214006A000428DED1D5F8AC30002BDAD0CDE90088EA
S214006A102346074A696905F1300011F010F8D0E7FF
S214006A2095F87030012BCCD12846FFF773FDC8E7E8
S214006A3015760100024A137801331370704700BFC1
S214006A40F16700202DE9F04F2DED028BBC4B91B085
S214006A501B7808930693069B002B4DD110F018FB6D
S214006A60B74A08991378DFF8DC825B1A137010F0C7
S214006A7015FB02F021F8DFF8DC92D8F8003013B9E5
S214006A80D9F8003063B301F049FB48B3D8F80030BA
S214006A9033B310F0FDFA0446404610F0C9F9054637
S214006AA018B14268937B013B9373204610F0F6FAC8
S214006AB06C68237B20467F2B4FEA931698BF0026F0
S214006AC001F05AFC002800F0CE8210F0E1FA0646EB
S214006AD022469C48294610F025FF304610F0DEFA84
S214006AE0994E3368002B40F0068311B0BDEC028B44
S214006AF0BDE8F04F00F084BB0DF12E010CA801F0AC
S214006B00A7FA8346002840F0E381904B5B7883B970
S214006B100C9B05211868B0F8052010F0A9FE20B1DE
S214006B200C9B1B681B78142B03D00C9801F0E6FC1A
S214006B30CEE10C9A136893F804A05E785B88BAF1ED
S214006B407F0F07930799BDF82E304FEA9A1598BF26
S214006B5000258B4228BF0B4630461381FFF7C8FC42
S214006B600446002800F07682E8070AD40C9B1B7DBA
S214006B703BB910F08DFAD4F8AC2081468AB910F0F3
S214006B808DFA0C9F3B7D002B00F017812046314686
S214006B90E27AFFF721FD00230C98037501F0AEFCA6
S214006BA080E15268E17B12680AF007031279C2F3AB
S214006BB00212571C114407F0070701F007018F4225
S214006BC005D8BB4201D38B4205D94846D7E78B424E
S214006BD001D9BB42D3D30027934298BF08339B1AF0
S214006BE0DBB22774099302F0F5FAD4E90632C01A2C
S214006BF061EB0201564A1378002B62D0C4E9080103
S214006C00400840EAC1704908C4E90A011770052027
S214006C10D4E90A8702F0F8FA804577F1000305D236
S214006C20052002F0F1FA0023A062E362D4E90A0725
S214006C304FEA8008BF0047EA9077D4E9080318EBCC
S214006C40000841F2883047EB030702F0DDFA002324
S214006C504045BB416BD241F2883002F0D5FA8046FF
S214006C60C4F8148004F1300002F070FA04F1AC03AA
S214006C7008EE103A099A5FFA8BF393426CD34846B3
S214006C8010F00CFA04F1B007D4F8B030002B3FF443
S214006C9078AF637B002B3FF474AF10F0F9F98146B0
S214006CA0384610F0C5F8804618B14268937B013B21
S214006CB09373484610F0F2F941462046FFF7BEFCB3
S214006CC0E2E7D4E90A27920842EA877212EB020C3E
S214006CD04FEA970747EB07081CEB020C47EB080741
S214006CE0D4E9083E1A1A6EEB0108B8F1000F02DA72
S214006CF0524268EB4808920842EA88721CEB02028D
S214006D0047EBA807C4E90A270727DB0843EA4E73C0
S214006D10A3FB07234FEADE0E07FB0E3EC00840EA41
S214006D20417010184EEBD101C4E908016FE7052049
S214006D3002F06AFA804577F1000391D205208CE7CD
S214006D40F1670020983800207C380020F267002089
S214006D50070C00209438002018EE100A10F068F88F
S214006D60059018B14268937B013B9373059BD3F85B
S214006D70048098F80E30DBB9D4F8842017462AB180
S214006D80D8F81820D8F80410207AB84700234046D0
S214006D90C8F8043001F0B2FB059801F055FC637B9F
S214006DA00BF1010B01336373E37B013BE37361E794
S214006DB04FF0010388F81C30EEE74FEA1A18002D52
S214006DC040F09880CDE90D550F9594F87030022B61
S214006DD006D105232A4631462046FFF7FDFB85E00F
S214006DE03B685B88023B9BB283B17D6819462846A8
S214006DF0059310F075FD059B02461946284610F0CF
S214006E0037FD059B10B90123E27AE4E7617AE27A5E
S214006E10C90701D50623DEE708F0070890455BD1D1
S214006E201AF0080F08D11A46384604F1A40101F0FA
S214006E30A3FBC8B10323E7E7217A11B10623424634
S214006E40C9E7A56F45B10FAA02920DAA01920EAA34
S214006E50009208467A68A847786801F0F9FA002395
S214006E6038467B6001F04AFBD4F888301BB1D4F872
S214006E708C10207A9847E37A2046013303F0070304
S214006E80E372FFF741FC0E9949B10D9A3AB10F9B98
S214006E9092B200931023204610F055FB02E00846FD
S214006EA001F04AFC94F87030012B11D1627B237BF1
S214006EB09A420DD104F1300002F048F90623A448A6
S214006EC0214684F870300FF0BBFF204601F000FC2E
S214006ED0069B013BDBB2BDE5531E984503D03AB98D
S214006EE0B8F1070F04D12046FFF70EFC384655E6EA
S214006EF0022370E7022D36D108F00308B8F1010F1F
S214006F0094F8705025D17B681B785A1E042A24D822
S214006F10DFE802F0181F1F0321001D460126384631
S214006F2001F0ECFA002EBDD094F87030022B16D08B
S214006F3004F1300002F00AF9204684F8705010F090
S214006F4090FAAFE7D4F8AC60002EE8D02046FFF702
S214006F50A3FB0026E3E70325E0E70525DEE720465A
S214006F60FFF7FAFB9EE7032D6CD1079A022A29D970
S214006F70A2F102087D681FFA88F84146284610F0FC
S214006F80AFFC41460246284610F072FC0028ADD001
S214006F90637A9A07AAD51AF0370515D15B07A5D4E8
S214006FA04246384604F1A80101F0E6FA00289DD1D1
S214006FB0D4F89430002B3FF475AFD4F89810207AAC
S214006FC098476FE79846E3E7042D2CD1A66F06B3E3
S214006FD000237A680E930FAB207A02930EAB0193D0
S214006FE00DAB032100934346B0470D99B9B10E9AF5
S214006FF0AAB10F9B2046009392B22B4610F0A3FA3C
S214007000034630B1D4F890501DB10F9A0D99207AEE
S214007010A847786801F01CFA00237B6066E70846FC
S21400702001F08AFBF5E7312D7FF460AF384601F0BA
S21400703065FA227A002A7FF435AF6281082311466A
S214007040009228E7204606233146E27AFFF7C4FA84
S2140070500C98A3E5022D3FF468AD052302463146A1
S214007060FFF7BAFA61E522890AB1023292B236B95E
S214007070237B206923F00701C37A0B432373012087
S214007080617B237B0090206810F030FC10F000F845
S21400709021890746204601F01BF858B122462946AA
S2140070A02C4810F03FFC206801F0E0F90023384639
S2140070B0236013E59EB9206922462946AC3010F0BD
S2140070C02CFC2469E37B0133E373237C1BB902F0B9
S2140070D081F8C4E9060138460FF0E0FFCDE43846F3
S2140070E00FF0DCFF022E284602D101F0CDFAC4E4F0
S2140070F001F0AAFAC1E40FF0CBFF054630460FF0C8
S21400710097FE044628460FF0C9FF0627DFF84080A2
S214007110627A237A251F9A420CD104F12C0002F0E1
S21400712015F84046294684F86C700FF089FE28460C
S21400713001F0CEFA0FF0ACFF054630460FF078FEB1
S214007140044628460FF0AAFF002CE1D1CDE400BF8C
S214007150903800209838002010B50F480FF05AFEDF
S2140071600E480FF057FE0E480FF054FE0D480FF075
S21400717051FE01F04FF80C4810F0A5FB00F058FE49
S214007180044630B901F022FD044610B9074810F055
S21400719077FB204610BD00BF903800207C380020CA
S2140071A09838002094380020F267002080380020AD
S2140071B02DE9F0410446884617460FF069FF257B07
S2140071C0064625B10FF06AFF0420BDE8F08121468F
S2140071D00948C4E901870FF024FE084A30461378B0
S2140071E001331370012323730FF058FF0320FFF7BA
S2140071F099FB2846E9E700BF9C380020F567002089
S2140072002DE9F047134E4FF000083778DFF8489026
S2140072103D460FF03DFF824648460FF009FE044605
S21400722050460FF03BFF44B1D4E9013084F80C809F
S214007230013D984715F0FF05EBD10FF029FF337895
S214007240BB4232BF0023DB1BDBB23370BDE8F04726
S2140072500FF024BFF56700209C3800203022074B33
S2140072601B685343064A03F1A043126803F58023C4
S214007270DB6E92689B1A0360704700BFB43800202C
S214007280E03900202DE9F74F0FF002FF4D4B804606
S2140072901B682BB90FF002FF1B2003B0BDE8F08F70
S2140072A05F681D891022D7F80090474CDFF838A198
S2140072B0464E002D76D00021204616F0A1F9C4E9EE
S2140072C000A94FF01309B5F5006FA660C4F80C903E
S2140072D03BD81022013D0021A018D7F804A016F0D4
S2140072E08FF9ABB23A4DC4E9066945EA0315394B46
S2140072F02B400225C4E9043A04EB051310220021B2
S214007300184616F07DF9344A4FEA05190A3744F84C
S2140073100920C0E9017604EB0512937843F01003C8
S21400732093700023DAB2954244D800242B4B2C48A5
S2140073301C7000942346244A2A490068FDF73CFD49
S21400734040460FF0ABFE2046A7E7B5F5805F24D891
S2140073501022D7F804A0DFF87CB00021A01816F0A1
S2140073604FF910220021C4E904BAC4E9066904F101
S214007370200016F045F96FF400631D44ABB2144DBF
S214007380C4F82C9045EA031505EA0B050AF50063D8
S2140073902562C4E909360325AEE740460FF07EFEB7
S2140073A021207AE72946204616F02AF9C4E900A9E2
S2140073B0A660B0E704EB0312917801336FF3041173
S2140073C09170AFE7FC3A0020B83A00203C800550A8
S2140073D000001030F07F103010001030090C002034
S2140073E0003B0020A83A0020600010302DE9F7434B
S2140073F004460FF04DFE0126DFF89C800546D8F8BF
S2140074000030D8F80000DBB29E40FDF7FBFC3021D0
S214007410D8F800301E4F01A801FB0373D3F8649020
S214007420FFF71CFF019B9C420AD8D8F80000FDF726
S21400743009FD28460FF032FE2E2003B0BDE8F0838B
S21400744047F6F072E31A9BB229F4FF40013B20F0A6
S214007450700002EA031343EA0002D8F8000001FBBA
S21400746000735A661A6F42F002021A675A6E42F4A6
S21400747080125A667A6D16437E651B6F054B1C801C
S214007480FDF7E0FC28460FF009FE0020D5E700BF18
S21400749000000450D0660020B438002038B501241F
S2140074A00E4D00222B780E490E489C40FFF780FEBA
S2140074B030212A680C4B01FB0232116F21F00201C9
S2140074C01167516E21F4801151665A6D22EA04024A
S2140074D05A6503F500531C6538BD00BFB43800205C
S2140074E0F5750000EC38002000000450F8B50FF0E9
S2140074F0CFFD054613480FF09BFC0446E0B14268FA
S214007500114E937B0F4F013B93736068FFF712FA9F
S21400751028460FF0C3FD0FF0BBFD2146054630465A
S2140075200FF07BFC38460FF083FC044620B142681F
S214007530937B013B9373E8E72846BDE8F8400FF0DD
S214007540ADBD00BFA43A0020F83A0020F7B50FF012
S2140075509FFD1F4E054601243068FDF793FC34223C
S21400756000211C4816F04CF807211B4B1B4A1C70C8
S2140075701B4B1C4F198006211388306861F30E13CD
S2140075801380002318490093184B3A60FDF714FC4B
S2140075904FF484713B681A8861F30E121A80302308
S2140075A03268134903FB0213186FD2B240F0020090
S2140075B01867586E944040F48010586628464B6D05
S2140075C01C434C6503B0BDE8F0400FF067BD00BF3C
S2140075D0B4380020B8380020080C0020C03900203D
S2140075E0D0660020E0390020B0390020997B0000EA
S2140075F0000004502DE9F04F002585B00395ADF846
S21400760006500FF045FD8146984CDFF878A200231F
S2140076100393ADF80630E368D3B99AF80030BBB1EF
S21400762093480FF005FC18B14268937B013B9373B7
S214007630E06068B901228F4B20601A708E4B186884
S214007640FDF720FC48460FF029FD05B0BDE8F08F99
S214007650237A002B47D0894E0D21D6F8073056F8EE
S214007660070C3360B6F80B3036F8032CB380737B08
S214007670F71DB37116F8013CC6F80700A6F80B20F4
S214007680701CBB710DF1060210F0FFF8054683462C
S214007690002849D0E268BDF80630526801339BB234
S2140076A01268ADF80630F118F35806F10E001360B4
S2140076B08B8893808B79BDF806109371E3685B68BE
S2140076C01A6852881A81C1F107020731D2B23144D2
S2140076D084F8302015F06DFF0E220021304615F09C
S2140076E08FFF00232372A67C94F830300EB1002260
S2140076F0A2749AF80070002F00F06E81002D40F002
S214007700EB8003A8FFF7AAFD94F830200399002A1F
S21400771000F00E81C2F10703DBB28B4240F2B48068
S21400772000252E46A846E5E00720FFF75FFE40B995
S214007730E1684F484A6810F0F0F825606581E5601A
S21400774080E7D6F807300E213360BB883046B3801A
S214007750BB79B37123681A68C6F807209A88BA807E
S2140077609B790DF10602BB7110F08FF80546804636
S214007770D8B1E368BDF806105B6872181B687158CC
S2140077803046196091889980927959469A71E368D3
S2140077905B681A6852881A81BDF806300E2263812B
S2140077A015F02EFF84F808B09DE70720FFF71EFEB1
S2140077B050B9039B2168073BCA18CB583B60938897
S2140077C0BB809379BB71B3E703A8FFF747FDBDF80D
S2140077D00C1020680DF1060210F057F80546E8B1C7
S2140077E0E36820685B68BDF806101B6842184158BD
S2140077F03046196091889980927941469A71E3687B
S2140078005B681A6852881A810E2215F0F9FEBDF8D8
S214007810063084F808800733638164E703980730EE
S21400782080B2FFF7E3FD90B9039B2168073BCA18B7
S214007830CB58E1683B6093880D48BB809379BB7159
S2140078404A6810F06AF8039B2560638177E7E16871
S21400785007484A6810F061F8094BE5601B78256018
S214007860002B7FF4EFAEFFF771FEEBE6B838002092
S214007870E4390020F7670020B4380020D338002011
S214007880F6670020080C0020E368AD495B681868BE
S21400789015F08FFEE26894F8303052682168106860
S2140078A0C3F10702184415F084FE638994F830206B
S2140078B007339B1A6381E36884F830505B682A4676
S2140078C0072118680FF0E1FF00283FF429AFE368AE
S2140078D05B681A6852881A81E1684A68B2F80880BC
S2140078E0B8F1000F4ED19748454610F016F83E46C0
S2140078F04FF00208A8F10203012B00F22981924BF7
S21400790093F800B0BBF1000F0ED16089073080B24B
S214007910B0F5857F80F03781FFF768FD002840F0DE
S214007920078101232060E374002E00F0288110E117
S21400793006297FF6F5AE60892368091A0DF106025E
S21400794089B218440FF0A1FF00283FF4E9AEE368BF
S214007950BDF806105B6820681A6863890B44C11876
S214007960C35813608B8893808B799371E3685B6848
S2140079701A6852881A816389BDF8062013440733B3
S2140079806381A9E7B8F5817F07D906236D4813758B
S2140079900FF0C3FFFFF74EF8C2E6002560898AF8AD
S2140079A0005008EB0003B3F5857FBFF6B9AE94F838
S2140079B03030984540F2B980A8EB0308404480B2C6
S2140079C0FFF714FD002840F0A8804FF00108054698
S2140079D0064684F812808DE7E26852681289934260
S2140079E037D302A800F0FCFC28BBE368544F5B6862
S2140079F039461A89029815F0DCFDE66894F83020BE
S214007A00736838461989521A394415F0DFFD7268D2
S214007A1094F830101389C91A84F83010029951600E
S214007A2061890B4431466381012646480FF075FF95
S214007A308AF800602AE04FF00108434B84F8307063
S214007A4083F80080414B3E461868FDF71BFA012775
S214007A5061E0FEB120686189D21A0144184415F02D
S214007A60B5FD94F830203649206815F0A2FDE1688F
S214007A7084F8307023684A6832485360636823602D
S214007A800FF04BFF012367818AF8003037464FF02E
S214007A9003082FE703A8FFF7E1FB039B94F83020C9
S214007AA061891A44E3685B681B890B449A42CED30B
S214007AB002A800F095FC38BB94F830200298D2B1AA
S214007AC01F4915F076FDE36861895B6894F830001D
S214007AD01A892368121A1944029B184415F069FD86
S214007AE084F83060E168029B4A68108953606389B5
S214007AF00344638198E7E36821685A6863891289BA
S214007B00194415F056FDEDE701270F4B1F700F4B7C
S214007B101868FDF7B7F9B046ECE6B0F12E0718BFC7
S214007B2001272E464FF00108E4E62E462F46F9E7D9
S214007B302E287FF4F9AE002E3FF469AD5F4608E0CC
S214007B40E1380020EC390020F6670020B438002029
S214007B501EB1FEF76FFF0023E360B8F1000F0ED1F1
S214007B60E16829B14A680A480FF0D7FE0023E360AF
S214007B7000232360074B1B780BB9FFF7E7FC002FA9
S214007B803FF445AD5EE5002EEAD0D846E1E700BFFB
S214007B90E4390020F66700202DE9F04F85B00FF09D
S214007BA077FA984C984AE37CD2F800B00646DBF8A1
S214007BB008A00BB9237AFBB10721B4F80A80934BCF
S214007BC0D0441980DBF80C3003A823F003031360BD
S214007BD09B68009300F004FC80B9039BCBF8083048
S214007BE094F81290B9F1000F34D0009BC4F800A0AE
S214007BF06360FFF753FC18E0D046E3E7A37C844DB0
S214007C00D3B1E16883484A680FF087FE0023E3603B
S214007C10A37423600122804B2D781A70002DDFD1CB
S214007C207E4B1868FDF72EF9E57430460FF036FAED
S214007C30002005B0BDE8F08F95F80090B9F1000F70
S214007C40E8D1774F734839684A680FF066FEC7F880
S214007C500090DFE76E4F724D3B78002B00F0A98056
S214007C606C480FF0E5F818B14268937B013B9373BC
S214007C70286078B901216B4A1170684A1068FDF7D0
S214007C8001F9654B1B7813B9504600F0B7FB00238B
S214007C90E374CAE74268D8F80010126850461160CC
S214007CA0B8F80410918098F80610917100F0A6FBC1
S214007CB0594B1A7842B1002203A81A7000F090FBC4
S214007CC010B9039BCBF808302B6800225B680721AD
S214007CD018680FF0DAFD8046D0B92968524A4B681A
S214007CE01B681868606198889B79908093714A68D1
S214007CF048480FF012FE01232372009BC5F800804F
S214007D00C4F80C8084F813802360A4F80A8070E717
S214007D104FF0000B296884F808B04A68DFF8ECA03A
S214007D2013685B8813810B811BBB01233B70072301
S214007D308146AAF80030BAF80000FFF757FB2E2855
S214007D405AD14FF00008009B29682360A4F80A80E7
S214007D50B9F1000F22D04A6834480FF0DEFDFEF776
S214007D6069FEC4F80C8000272F60FFF797FBE774C6
S214007D705BE7B3F5817F0ED906232C4813750FF009
S214007D80CCFDFEF757FE01233B700723C5F800B075
S214007D90AAF80030CFE787F800B0F9E73B7833B1B0
S214007DA04A681C480FF0B9FDC4F80C90DBE7E160A8
S214007DB0D9E72A68072052680193C2F804804FF07A
S214007DC00108124A87F800801080FFF70FFB2E2864
S214007DD0019B07D1009A87F800802260E3606381E8
S214007DE0FFF75CFB296811484A680FF096FDFEF71E
S214007DF021FE00232B604AE7B9F1000F3FF447AF9E
S214007E00F0E700BFB8380020E0390020D066002038
S214007E10080C0020E4390020F6670020B438002063
S214007E20A0380020F7670020CC380020EC3900206E
S214007E30F0B58BB04FF480526A4B1A604FF4006274
S214007E401A6069480EF0E6FF68480EF0E3FF6848DF
S214007E500EF0E0FF67480EF0DDFF67480EF0DAFF31
S214007E6066480EF0D7FF66480FF00AFD0026654DFF
S214007E705D4F281D00F008FB044618B11924204663
S214007E800BB0F0BD29466A68384601360FF04AFD49
S214007E900F2E05F10C05ECD15B4D564E29463046AB
S214007EA001340EF0BAFF0F2C05F10C05F6D10123B4
S214007EB0042219461846FDF7DDFD0123534D022224
S214007EC00021184603ACFDF7D5FD0FCD0FC495E88D
S214007ED00700002384E807004D4C03A920468DF8D0
S214007EE00C30FEF73DF814224A4B0521C3F8AC25AA
S214007EF04FF00112C3F8C4250122C3F8BC25E36C79
S214007F00204613434FF0FF32E364434B9A644FF42A
S214007F10406363610FF030F9FCF71AFF10B13F4B76
S214007F2098425DD13E4C00212046FCF7BBFE014640
S214007F300028A3D13B48FCF7B5FE18B12068FCF733
S214007F40E1FE9BE74FF48023374A38491360384BED
S214007F50C2E9010019600121C3E90100D060D860C0
S214007F6001A85172597200F03BFA0146002885D1EB
S214007F70304C10222046019E2F4D15F041FB2F4B12
S214007F80A660C4E9003501A800F02AFA01460028D8
S214007F907FF474AF2A4B3422C4E90435019BE461B4
S214007FA0A361A37860F30413A37004F11003E360E5
S214007FB0244B25481C6015F023FB02A800F0CAFAE3
S214007FC000287FF45BAF02A800F0C4FA044600283D
S214007FD07FF454AF07221D4B1A80FFF7B7FA4EE71F
S214007FE010244CE700E100E0E4390020E8390020E6
S214007FF0EC390020F83A0020FC3A0020A43A002091
S214008000A4380020FC380020F0390020D4DC010021
S2140080100080055000C0035000A00550038000F00B
S214008020B4380020003B0020B039002002000400D5
S214008030A83A0020C0390020248005508010100384
S21400804080100003E0390020B8380020D0660020F9
S214008050F8B50E4607460FF01BF8054617480EF013
S214008060E7FE044620B350F8043F9A7B013A9A7321
S2140080703B604FF48173338000F006FA064690B9F1
S214008080626821460E480FF04DFC0E4B1A782AB156
S2140080901E700D4B1B780BB9FFF758FA28460EF0EA
S2140080A0FDFF0020F8BD214608480EF0B6FEF5E7B5
S2140080B028460EF0F3FF1B20F4E700BFEC39002043
S2140080C0E4390020F7670020F6670020E839002032
S2140080D0F8B50D4606460EF0DBFF07460D480EF0D7
S2140080E0A7FE044638460EF0D9FF8CB1258166609F
S2140080F00EF0CEFF21466268054607480FF00DFCDD
S214008100FFF7C0F8044628460EF0C8FF2046F8BD24
S2140081100324FBE7F83A0020FC3A0020044B1878CA
S214008120044B1B68002B08BF002000F001007047BE
S214008130090C0020F83A00202DE9F0410EF0A8FFC7
S2140081400646134FDFF854803D689DB1281D00F0A9
S2140081509BF9044670B938460EF06AFE6A682946EE
S21400816040460FF0DFFB0B4B1A7802B11C703B68E1
S214008170002BE9D1084B1A782AB1064A127812B9B0
S2140081801A70FFF7E3F93046BDE8F0410EF086BFFF
S214008190E8390020F7670020F6670020E439002061
S2140081A008B5144B144A9B6C03F001039364FBB1AF
S2140081B0124B1868FDF738FD0122114B11481A7052
S2140081C00EF036FE014618B14268937B013B93736E
S2140081D04A680D480FF0A1FB00220C490C48FEF738
S2140081E0E7FF084B1B681BB1BDE80840FFF74AB81D
S2140081F008BD00BF0080055000A00550003B0020D1
S214008200090C0020FC3A0020A43A0020ED7400007F
S214008210A43800204FF4EC6373B5E424344800938C
S2140082203B222021334B00680FF0CEFB32480094EF
S21400823017220721314B00680FF0C6FB2C2330486D
S21400824000930B2201212F4B00680FF0BDFB41F27B
S214008250F0432D480093142240F209112B4B00687E
S2140082600FF0B2FB4FF40A73294800930322B8219B
S214008270284B00680FF0A8FB2748009413220C2117
S214008280264B00680FF0A0FBA02398244FF4A0769E
S2140082902348009314220821224B00680FF094FB19
S2140082A02148224D009413220821214B00680FF02C
S2140082B08BFB2868142210211E4B00960FF084FBBF
S2140082C02868142210211B4B00960FF07DFB4FF4FC
S2140082D041731948009305222146184B00680FF099
S2140082E073FB174802B0BDE870400EF093BD00BFA8
S2140082F0FC0A0020103B0020140B0020D443002072
S2140083001C0B0020C4440020240B0020FC4400204A
S214008310040B0020F81300202C0B0020F859002036
S2140083203C0B0020F85D0020440B00200C0B0020C6
S214008330A45E002088420020340B0020E85A00206B
S2140083403C5F002010B5044678B10A4B18680FF061
S214008350E2FA60B10023C0E90033C0E9023383616A
S214008360036103752060184610BD2220FCE71A2022
S214008370FAE700BFFC0A002010B5044648B1064BD9
S21400838018680FF0C8FA0028206014BF00201A20D2
S21400839010BD2220FCE700BF140B002073B5054675
S2140083A001A8FFF7CFFF044678B90B4B019E18686B
S2140083B00FF0B1FA022301997060CB734B683BB99A
S2140083C0064B1A2418680FF0A4FA204602B070BDB7
S2140083D001230B812960F8E71C0B0020FC0A002013
S2140083E0054B10B5044618680FF095FA0028206073
S2140083F00CBF1A20002010BD240B0020014608B533
S21400840028B1044B18680FF084FA002008BD22201B
S214008410FCE700BF240B0020014608B580B1094BDD
S21400842018680FF076FA08480EF002FD014618B1FB
S214008430064B18680FF06DFAFFF77EFE002008BDA9
S2140084402220FCE7240B00203C5F00202C0B0020A1
S214008450014608B528B1044B18680FF05AFA0020F8
S21400846008BD2220FCE700BF240B0020014608B50B
S21400847028B1044B18680FF04CFA002008BD2220E3
S214008480FCE700BF140B002073B5054600282CD06F
S21400849001A8FFF757FF044658B90198FFF76CFF8D
S2140084A0019E336843B93146114B1A2418680FF001
S2140084B030FA204602B070BD0E4B1B7863B90E4BE7
S2140084C018680FF028FA019B70605A682AB9186875
S2140084D0FFF7CCFF0199E7E7746000220121019BBA
S2140084E01A81D9731A752B60E3E72224E1E700BFEF
S2140084F0FC0A0020F2670020240B002038B5044652
S214008500E8B1837BEBB94168C57B29B1022D12D156
S2140085100D4B18680FF0FDF9206808B1FFF7A6FFAD
S2140085200A4B214618680FF0F4F9012D01D1FFF728
S21400853003FE002004E0012DEED1054BE9E72220E2
S21400854038BD0420FCE700BF1C0B0020FC0A0020FE
S214008550240B002010B5044648B1064B18680FF0EF
S214008560DAF90028206014BF00201A2010BD22204F
S214008570FCE700BF2C0B0020F7B50E461746054655
S214008580D0B1C9B101A8FFF7E5FF044688B9019943
S2140085906B6808604B60EB7B30468B720F810EF089
S2140085A040FC2868FFF762FF044B294618680FF066
S2140085B0B0F9204603B0F0BD2224FAE7FC0A0020FA
S2140085C010B50446C0B1416831B1837A022B0AD196
S2140085D00A4B18680FF09DF9094B2146BDE810407C
S2140085E018680FF096B9012BF6D1064B18680FF0F5
S2140085F090F9FFF7A1FDEFE710BD00BF1C0B0020B0
S2140086002C0B0020240B002008B543680B60038960
S2140086100146138002480EF000FC002008BD00BF93
S2140086203C5F002010B5044648B1064B18680FF0B2
S21400863072F90028206014BF00201A2010BD2220E6
S214008640FCE700BF3C0B0020014608B528B1044BF0
S21400865018680FF05EF9002008BD2220FCE700BF76
S2140086603C0B002010B5044648B1064B18680FF0C6
S21400867052F90028206014BF00201A2010BD2220C6
S214008680FCE700BF440B0020014608B528B1044BA8
S21400869018680FF03EF9002008BD2220FCE700BF56
S2140086A0440B002010B5044658B1084B18680FF06C
S2140086B032F9206038B1B822002114F0A1FF002062
S2140086C010BD2220FCE71A20FAE700BF040B0020AA
S2140086D0024B014618680FF01CB900BF040B0020BF
S2140086E010B5044648B1064B18680FF014F9002878
S2140086F0206014BF00201A2010BD2220FCE700BF17
S2140087000C0B0020024B014618680FF002B900BFA0
S2140087100C0B002010B5044648B1064B18680FF045
S214008720FAF80028206014BF00201A2010BD22206E
S214008730FCE700BF340B0020014608B528B1044B07
S21400874018680FF0E6F8002008BD2220FCE700BFFE
S214008750340B0020014B1878704700BFF8670020E4
S2140087600122014B1A707047FA67002010B50123EA
S214008770022200211B480EF079FF2E2804462ED038
S21400878058BB0821184A17480EF072FF044618B165
S2140087901448FEF759F820E0144A32B10521114872
S2140087A00EF066FF04460028F2D10721104A0D4855
S2140087B00EF05EFF04460028EAD102210C4A094862
S2140087C00EF056FF04460028E2D10321094A054868
S2140087D00EF04EFF04460028DAD1204610BD1224C3
S2140087E0FBE700BF6C5F0020098C00000000000063
S2140087F06D8B0000618700000623F0B50B70054600
S21400880040681646A0F58052FF2A0C4685B010D860
S2140088100422C0B240F480534A804B602B7A013B5E
S214008820012B01D80EF0E9FF63880433336005B0EE
S214008830F0BDB0F5A06F2ED012D840F202229042C2
S21400884014D009D8042802D9B0F5007F3ED1002301
S21400885063601523A36017E040F201329042F5E70B
S214008860B0F5C06F1ED0B0F5885FEFE704224A80EF
S214008870A96829B1012909D0002363600323E9E729
S214008880144AC4E901011160082309E0114AC4E949
S21400889001011160F8E7297A0F4A6060117004231D
S2140088A06380C1E70D4FEB68A86803A93B6000F042
S2140088B0BDFC38B9CDE900003B46094A0399094892
S2140088C00FF0D9F84FF4C0636360E8E700236360F5
S2140088D00D23BFE7685F0020F9670020405F002097
S2140088E02F790100445F002000487047F0DC01004B
S2140088F02DE9F047154606220A7043680C46302BD1
S21400890088B000F09A801ED8042B06D8013B032BB3
S21400891057D8DFE803F05A86606A202B00F087807D
S214008920A3F58052FF2A4FF0000200F2AC808DF8CB
S2140089301830DBB243F48053636005A805920EF04E
S2140089404BFF207245E040F20222934200F09480F2
S2140089500CD8502B75D0B3F5007F76D0402BDFD1E6
S2140089604B600EF0B7FFA06008233CE040F20132F7
S214008970934200F08480B3F5885FD1D10026374655
S2140089804B6001F1070901F1870A731C02A8CDE9C3
S2140089900277CDE905778DF80C608DF818300497CE
S2140089A007970EF019FF804605A80EF015FF48EA57
S2140089B0001009F8010F0236CA45F6B2E5D1842345
S2140089C011E000234B60A360CEE701234B60042335
S2140089D00B72052307E003230422CB60C1E90132B2
S2140089E000230B611023638015E00F46042347F82D
S2140089F0043FFFF779FF019014F0B5FE0646421CCF
S214008A00B2F5807F28BF4FF480720199381D053675
S214008A1014F0CFFD6680638804332B6008B0BDE891
S214008A20F08702234B60214B9B78DB00CBE74B6043
S214008A304FF480734A800B81EDE74B601C4B1B683C
S214008A40C1E74B600EF049FF8DE74B6005A8FBF7CA
S214008A501BFF069BE360002323619DF81430012B67
S214008A6002D10323A360BDE723B9A3604FF0FF3311
S214008A70E360B7E70423F5E74B600E4BDFE74B6098
S214008A80FFF768FE6FE7A3F5E061FF290AD88DF8C7
S214008A901830DBB243F4E063636005A805920EF07D
S214008AA0AAFE4EE70D2362608DE700BFF267002046
S214008AB0645F0020685F00201FB5174C237843B121
S214008AC016480EF089FE062820D1FFF74FFED0B9D3
S214008AD02070134B1B78A3B10323104800930DF1AD
S214008AE00A02002303A90EF00DFE50B9BDF80A30A5
S214008AF0039823B10B4A037811680B441360FFF701
S214008B008BFC04B010BD01232370E2E70128E0D0FF
S214008B100248FDF799FEDCE7FA6700206C5F00204C
S214008B20F9670020645F00204FF0005398B10128D9
S214008B3015D04FF000534FF20F025A80BFF34F8FFD
S214008B400849094BCA6802F4E0621343CB60BFF3DE
S214008B504F8F00BFFDE740F201221A80E9E740F29E
S214008B600222FAE700ED00E00400FA0510B5084618
S214008B70144609B1FFF7E0FD034B9C4203D1034BBB
S214008B801868FFF7D1FF10BDEFBEADDE685F0020AE
S214008B9030B585B0054603A8FFF7BCFD044678B996
S214008BA00623039945F480550B8005234B8002234A
S214008BB04D600B7209220346009003480EF0E3FD59
S214008BC0204605B030BD00BF6C5F00207FB5FFF7C4
S214008BD0CDFD044603A8FFF79DFD00260623039D52
S214008BE02B806E600EF0B3FE08230399A8600C225B
S214008BF04B800448022300960EF0C5FD204604B0C4
S214008C0070BD00BF6C5F00202DE9F3471446DDE918
S214008C100AA700220329CAF8002080460E46DDF87F
S214008C2030903A6000D041BBB8F1000F25D1628881
S214008C30043B9A4221D1C9F8008001A8FFF76AFDDB
S214008C40D8B9019D032ECAF8005063786B7038D1EE
S214008C502378022B17D0032B28D0012B0DD12B7095
S214008C6004236B8008233B601D4B18680EF09BFEA8
S214008C70686028B91B4BC9F8003002B0BDE8F08721
S214008C80C9F80080F9E76368202B09D023F01002AA
S214008C90402A05D05A1E032A02D9B3F5007FECD12C
S214008CA03A4629462046FFF723FEE6E740F202232F
S214008CB062689A42E1D13A4629462046FFF79CFD73
S214008CC0DBE7002ED9D12378022BE9D0032BF2D094
S214008CD0002BD2D104232E706E803B60CDE700BF00
S214008CE0685F0020EFBEADDE13B50024064A684676
S214008CF0536F43F00103536700948DF80440FCF76C
S214008D006BFE204602B010BD0040005008B5024879
S214008D10FCF75EFD002008BD00B4C40430B58BB07F
S214008D206C46174D0FCD0FC40FCD0FC495E803004A
S214008D3084E80300134BD3F84C21120318D4D3F85D
S214008D405041E4B28DF81940FCF72CFE204480F325
S214008D5008008DF818000C48FBF726FD6846FCF75F
S214008D6089FD4FF4FA70FCF723FE00200BB030BDEF
S214008D70064B1C884FF6FF739C4208BF8C24E1E725
S214008D80FCDC01000080E00F00F049020001E00F6B
S214008D906FF00402502110B50A480B4C12F0800FF9
S214008DA0D3B21BBF03F00F03043BA3181B1802F13A
S214008DB001020CBF83F8001319763D2AEED100207D
S214008DC010BD00BF00ED00E000E100E0BFF35F8FE4
S214008DD0074B5A6A22F480325A62D3F8942022F063
S214008DE00102C3F89420BFF34F8FBFF36F8F704715
S214008DF000ED00E070B52648264CFFF7E7FF8442FA
S214008E0008BF4FF08043244A18BF20F01F03D2F853
S214008E10C01018BF203B21F0FF0141F0A001B3F1C4
S214008E20005FC2F8C0100CD31C4D1D4E296843F0DD
S214008E300103C2F898100131C2F89C60C2F8A03055
S214008E402960844210D01548164B0268124923F058
S214008E501F0343F00303C1F89820C1F89C30124B5F
S214008E600132C1F8A0300260BFF35F8F05220A4BC3
S214008E70C3F894205A6A42F480325A62BFF34F8F86
S214008E80BFF36F8FBFF34F8FBFF36F8F70BD00BF01
S214008E90180C0020B40D002000ED00E0785F0020E4
S214008EA003000020D30D0020E1FFFF3F10B514465D
S214008EB0FFF78CFF1F2C24D91C4A1D4CD2F8C0305B
S214008EC023F47F4343F48073C2F8C030C2061CBF4D
S214008ED020F01F002030CB06144A236818BF21F06C
S214008EE01F0120F01F0021F01F01C2F8983040F04B
S214008EF0030041F003010133C2F89C00C2F8A01041
S214008F002360BFF35F8F0522084BC3F894205A6A8C
S214008F1042F480325A62BFF34F8FBFF36F8FBFF3B6
S214008F204F8FBFF36F8F002010BD00BF00ED00E035
S214008F30785F0020BFF34F8F0549064BCA6802F4DE
S214008F40E0621343CB60BFF34F8F00BFFDE700BF67
S214008F5000ED00E00400FA0530B50F4C41612368CF
S214008F60ABB92060836011E0891A9A681D4641619A
S214008F702AB113465A698A42F6D955B11A4613469B
S214008F80A860836013B15A69511A596130BD002533
S214008F90F0E72060F5E700BF885F002010B50EF010
S214008FA09AFD0A4C0A4B19682368C31A01B10BB91B
S214008FB0206010BD4A699A423ABF9B1A0022D21A14
S214008FC04A6128BF00238968F0E700BF7C5F002065
S214008FD0885F002038B5134D2B685B6993B1124A41
S214008FE0022014681C440EF07DFD204600F06EFA48
S214008FF000230E492A680B70D088800709D5012304
S2140090000B7038BD02200EF06DFD022000F0A8FAAD
S214009010EEE79268002AF4D050690344012BEBD99E
S214009020EFE700BF885F00207C5F0020FC67002021
S21400903070B516469DF81420C0E903360271049AEE
S214009040BDF818300260002204460D468260C380D8
S21400905006BB0EF040FD2844A0613DB9E36865619B
S21400906013B120462168984796B135460EF009F8A8
S2140090700646FFF793FF29462046FFF76DFF074B8E
S2140090801B68A34201D1FFF7A5FF30460DF0FDFF98
S214009090002070BD0EF01FFD3044DDE7885F002025
S2140090A000220C490B687BB183420AD183687AB1EF
S2140090B0936083681BB15A6941690A445A6100206B
S2140090C070471A469B68EEE70028EFD002207047EC
S2140090D00B60EEE7885F002070B50DF0D9FF144EE8
S2140090E005463478FCB9134B1C60134B1C60134BBD
S2140090F01C8000F0B1F901200EF0F4FC0EF00DFD1E
S2140091000F4B0246186020B928460DF0C7FF2320F3
S21400911070BD234640F2E7310A480CF077FB0A4B55
S21400912018600123337028460DF0B8FF0020EFE7E3
S214009130FB670020885F00207C5F0020D26600204E
S214009140845F002018FCFFFF805F00202DE9F041BF
S2140091500546F8B10DF095FF0F4F0646FFF71EFFC8
S2140091602846D7F80080FFF79BFF044628B1304614
S2140091700DF08BFF2046BDE8F081A8453B6803D183
S21400918023B1FFF727FFF2E7002BF0D1022000F013
S214009190CFF9ECE72224EDE7885F002038B50C46CF
S2140091A0054698B191B100230B700DF071FF0121B7
S2140091B0074B1B680BB122781AB10DF06FFF002029
S2140091C038BDAB4214BF9B682170F3E72220F7E757
S2140091D0885F002070B50DF05BFF06460EF07BFC46
S2140091E0084B04461D880120ADB20EF087FC18B16E
S2140091F00EF071FC0446013530460DF04FFF204658
S214009200294670BDD266002038B5002140F2E7340A
S214009210054B4FF47A721D680023E5FB004120469B
S2140092200CF0F4FA38BD00BF845F00200C4B70B51C
S2140092301B680D46834211D340F2E73100248C466A
S2140092402146084B4FF47A721E680023E0FB06C1E5
S21400925060460CF0DBFA2860204670BD2120FCE753
S214009260805F0020845F00200F4B10B51A689AB10B
S2140092704FF47A71531E1342A0FB01010ED1B2FACD
S21400928082F2C2F11F04531CD243E04001FA03F3FA
S214009290184321FA02F20243104610BD00230CF0D8
S2140092A0B5FA0246F8E700BF845F0020164B70B59B
S2140092B08342164B15468B4124D3154B1A680AB3C6
S2140092C04FF47A76A0FB0603541E144006FB0131C9
S2140092D011D1B2FA82F3C3F11F025E1CDB4301FA1E
S2140092E006F6D04021FA03F330431843D140C5E9CF
S2140092F00001204670BD00230CF088FA0024C5E962
S2140093000001F6E72124F4E7EFA7C64B37894100B2
S214009310845F0020C2072DE9F04704460BD54B4A70
S214009320138801339BB21380FFF738FE484B1B6847
S2140093300BB1FFF74FFEA30740F185800DF0A8FEA6
S2140093404FF0000980464D46FFF728FE4F46404E38
S21400935034680CB163698BB100223E4B012D1A7044
S21400936003D119F0020F18BF1D70002C5BD0FFF759
S21400937031FE4046BDE8F0470DF090BE23461A7910
S2140093802179914288BF1C469B6813B15A69002A0E
S214009390F5D040460DF082FED4F81090B9F1000FDB
S2140093A045D00EF098FBA269A0EB02084FEAE873DE
S2140093B0C14577EB03033BDA23691344A36101231A
S2140093C02269CAB1C3B9A38BB9EB080833B1E28BE3
S2140093D013449BB2B3F57A7F1CD2E3830DF058FE9C
S2140093E0814641462046FFF7B7FDA36922694846F5
S2140093F01344A3610DF052FEE368B4F806900135FD
S21400940013B12046216898470DF042FE8046FFF7CC
S214009410C5FD9DE7A3F57A73E383A36918F1FF38CA
S214009420013BA361DAE7022000F082F8A1E7C84614
S2140094300DF02EFE82462046FFF732FE50460DF017
S2140094402DFE0023BCE7BDE8F08700BFD2660020F3
S214009450885F0020FD6700201FB50024184B1868A1
S2140094609A880290D3F806009B7A009002A8ADF87E
S2140094700C208DF804308DF808408DF80C40FCF771
S2140094809BFC694601208DF80040FCF759FC4FF024
S214009490B0431F219A6922F01F029A61094A51615E
S2140094A09A6A12F00802FBD11A620120FCF762FCED
S2140094B04FF48062044BC3F880211A6004B010BDDC
S2140094C024DD01000020005800E100E010B504464D
S2140094D00DF0D7FD4FF0B042936A1907FCD4136A1B
S2140094E0116C5269120704D4CA1A032A01D8994289
S2140094F00ED1E21A022A98BFDC1CB4F1FF3F38BF37
S214009500013C4FF0B0431C649A6942F008029A612D
S2140095100DF0BBFD054A13783BB14FF0B041CB6B65
S21400952043F00203CB630023137010BD0A0C002027
S214009530820700F001030AD50121084A43F0080318
S21400954011704FF0B041CA6B22F00302CA634FF0AD
S214009550B0418A6922EA03038B6170470A0C002037
S214009560830742BF0822014B5A617047001000581B
S21400957010B50DF08DFD4FF0B04304465B691A0739
S214009580074A03F0010003F00D0348BF40F0020055
S2140095905361FFF7BFFE2046BDE810400DF07EBDCC
S2140095A00020005820220021014814F029B800BFEE
S2140095B0B05F002007B5FFF70DFE6A46FFF776FEA0
S2140095C028B16321044B054A05480CF0AFFA009811
S2140095D003B05DF804FB00BF2FDD010000DE0100D4
S2140095E046DD010037B50D4614461348FFF7AEFDBD
S2140095F0124B2C441C60FFF7DDFF201A0124104B91
S21400960000281C7004DC03B0BDE830400EF099BDA5
S21400961080B2FFF7F9FD002301460A4A0648019486
S21400962000930EF028FA28B18D21074B074A084808
S2140096300CF07CFA03B030BDB05F0020A85F0020BD
S214009640FE670020517B01002FDD0100E8DD0100F0
S21400965046DD010008B50348FFF778FD0022024BFF
S2140096601A7008BDB05F0020FE67002037B50DF009
S21400967008FD054613F030FB044609490B680860F0
S2140096808342084B284682BF1A6801321A6019685E
S21400969001910DF0FAFC2046019903B030BD00BFE1
S2140096A08C5F0020D05F002037B50D461446114869
S2140096B013F005F9104B2C441C6013F00DFB01222F
S2140096C00E4B211A00291A7004DC03B0BDE83040A6
S2140096D00EF037BD002307480093094B13F0E2F85D
S2140096E030B14FF48971074B074A08480CF01EFA50
S2140096F003B030BD905F0020AC5F0020FF67002005
S214009700557B0100B1DD0100D0DD010046DD010022
S21400971008B5034813F0D3F80022024B1A7008BDB0
S214009720905F0020FF6700202DE9F04104460DF011
S214009730AFFC1B4B07461E78A6B90026194B1D78B2
S214009740DDB9002538460DF0A9FC2EB100F0A8F8CA
S21400975000B320460FF006FC05B32046BDE8F041F6
S21400976002F058BB104B1D68FFF724FF281A00288C
S214009770E3DC2046FFF76EFFE0E70C4BD3F80080F3
S21400978013F0AAFAA8EB00000028DADC2046FFF760
S214009790BFFFD7E7204602F019FBDDE7BDE8F08102
S2140097A0FE670020FF670020A85F0020AC5F002057
S2140097B01FB5084C01900DF10E01206813F0C3F898
S2140097C028B9019ABDF80E10206813F081F804B08D
S2140097D010BD00BFD85F0020002330B585B0CDE9AE
S2140097E001330393FF230E4D8DF80430286813F0E1
S2140097F072F8044688B90DF10201286813F0A3F840
S214009800BDF80210286801AA05F012FA28B1D9217D
S214009810044B054A05480CF089F9204605B030BDD2
S214009820D85F002017DE010094DF01006BDE010028
S2140098302DE9F047D2F8009006460D4648461249F4
S2140098401446984613F07DFF089F024628B1484606
S2140098500E4913F076FFA0B901220D48012D00EB4A
S214009860C202D2F804E005F1FF3143463046F44622
S21400987088BF221D089798BF0022BDE8F047C9B2EE
S21400988060472320BDE8F087D5DE0100E0DE01005A
S214009890A4DF0100014B1870704700BF006800206D
S2140098A0014B1878704700BF0068002008B549B122
S2140098B007480EF0FDFF0020FFF77AFF003818BFBC
S2140098C0012008BD03480EF0F3FFFFF785FFF5E71C
